:020000040800F2
:10000000480500209D010008A51C0008D318000821
:10001000A11C0008A90200084D27000800000000EC
:10002000000000000000000000000000F31F0008B6
:10003000D502000800000000F11F0008652000083C
:10004000B7010008B7010008B7010008B7010008B0
:10005000B7010008B7010008B7010008B7010008A0
:10006000B7010008B7010008B7010008B701000890
:10007000B7010008B7010008B7010008B701000880
:10008000B7010008B7010008B7010008B701000870
:10009000B7010008B7010008B7010008B701000860
:1000A000B7010008B7010008B7010008B701000850
:1000B0003521000845210008B7010008B7010008F4
:1000C000B7010008B7010008B7010008B701000830
:1000D000B70100083D270008B7010008B701000874
:1000E000B7010008B7010008B7010008B701000810
:1000F000B7010008B7010008B7010008B701000800
:10010000B7010008B7010008B7010008B7010008EF
:10011000B7010008B7010008B7010008B7010008DF
:10012000B7010008B7010008B7010008B7010008CF
:10013000B7010008B7010008B7010008B7010008BF
:10014000B7010008B7010008B7010008B7010008AF
:10015000B7010008B7010008B7010008B70100089F
:10016000B7010008B7010008B7010008B70100088F
:10017000B7010008B7010008B7010008000000003F
:10018000B7010008B7010008DFF80CD000F07AF8DA
:1001900000480047A7270008480500200648804778
:1001A00006480047FEE7FEE7FEE7FEE7FEE7FEE75C
:1001B000FEE7FEE7FEE7FEE72121000889010008CF
:1001C0002DE9F05F0546002092469B46884606468C
:1001D000814640241BE0284641464746224600F01F
:1001E00041F853465A46C01A914110D31146184659
:1001F000224600F028F82D1A67EB01084F462246E8
:100200000120002100F01FF817EB00094E41201ECD
:10021000A4F10104DFDC484631462A464346BDE8E6
:10022000F09FD2B201E000F8012B491EFBD27047CB
:100230000022F6E710B513460A4604461946FFF7B2
:10024000F0FF204610BD202A04DB203A00FA02F11C
:10025000002070479140C2F1200320FA03F31943B4
:1002600090407047202A04DB203A21FA02F0002156
:10027000704721FA02F3D040C2F1200291400843B6
:1002800019467047064C074D06E0E06840F0010350
:1002900094E8070098471034AC42F6D3FFF778FF94
:1002A000E42D0008042E000800BFFEE707480068A0
:1002B00040F0807005490860002005494860084604
:1002C000006840F00100086070470000FCED00E0AD
:1002D000001000E07047000010B5084B5968084B4B
:1002E0001B68084CB3FBF4F303FB00F200BF034BA5
:1002F0005B685B1A9342FAD310BD0000001000E067
:100300001400002040420F0010B501F0D5FC0AA2F5
:100310000121084601F038FE09A20121022001F066
:1003200033FE09A20121032001F02EFE08A20121C3
:10033000042001F029FE10BD53746174653A000079
:10034000467265713A00000054656D3A0000000085
:1003500048756D3A0000000072B600BFFEE770B548
:100360000446A56D00F082F9064694F8350002288F
:1003700008D08020606500BF002084F8340000BFF2
:10038000012070BD2068006820F016002168086018
:100390002068406920F0800021684861206C08B91D
:1003A000A06C28B12068006820F00800216808606F
:1003B0002068006820F001002168086010E000F06B
:1003C00055F9801B05280BD920206065032084F88F
:1003D000350000BF002084F8340000BF0320D0E7C0
:1003E0002068006800F001000028E8D194F85C1053
:1003F0003F208840A860012084F8350000BF00201D
:1004000084F8340000BF00BFBBE7014691F8350017
:10041000022803D08020486501207047052081F81C
:1004200035000868006820F001000A6810600020AC
:10043000F3E7000070B5044600F018F906462546BB
:10044000681C10B104480078054400BF00F00EF9A4
:10045000801BA842FAD370BD10000020F8B50246F8
:100460000B460025002400200021D6E0012606FAD4
:1004700001F51E6806EA0504AC4274D11E7906F047
:100480000306012E04D01E7906F00306022E13D1B6
:1004900090684F000326BE40B0434F00DE68BE4068
:1004A00030439060506801268E40B0431E79C6F3F9
:1004B00000168E40304350601E7906F00306032E6E
:1004C00009D0D0684F000326BE40B0434F009E685D
:1004D000BE403043D0601E7906F00306022E13D1D1
:1004E000CF0802F1200656F827004E07F70E0F2618
:1004F000BE40B0434F07FF0E1E69BE403043CF08D9
:1005000002F1200646F8270010684F000326BE407F
:10051000B0431E7906F003064F00BE403043106022
:100520005E6806F44036002E76D000BF00260096A6
:100530003C4E366846F480463A4F3E603E4636684A
:1005400006F48046009600BF00BF374E8F0856F86D
:1005500027008E07370F0F26BE40B043334EB242FE
:1005600002D1002624E057E0314EB24201D10126EB
:100570001EE0304EB24201D1022619E02E4EB242A8
:1005800001D1032614E02D4EB24201D104260FE022
:100590002B4EB24201D105260AE02A4EB24201D1C9
:1005A000062605E0284EB24201D1072600E00826C3
:1005B0008F073F0FBE4030431B4E8F0846F8270081
:1005C000224E3068A0435E6806F4801606B12043D0
:1005D0001E4E3060361D3068A0435E6806F400167B
:1005E00006B12043194E361D3060184E361F306854
:1005F000A0435E6806F4003606B12043134E361F52
:100600003060361F3068A0435E6806F4803606B15D
:1006100020430E4E083E3060491C1029FFF426AFDF
:10062000F8BD000044380240083801400000024094
:100630000004024000080240000C0240001002408A
:100640000014024000180240001C0240083C014017
:10065000024613690B400BB1012000E000207047F7
:100660000AB1816101E00B048361704701480068B1
:10067000704700000800002003480068034909781B
:10068000084401490860704708000020100000205D
:1006900010B50D48006840F400700B49086008462A
:1006A000006840F4806008600846006840F480708C
:1006B0000860032000F0A6F80F2000F007F800F013
:1006C0002BF8002010BD0000003C024070B504462D
:1006D0000E4800784FF47A71B1FBF0F00C490968CC
:1006E000B1FBF0F5284600F02FFC08B1012070BDE9
:1006F000102C07D200222146501E00F045F8054874
:10070000046001E00120F2E70020F0E71000002083
:10071000140000200C00002008B500BF002000904D
:100720000E48006840F480400C49086008460068A4
:1007300000F48040009000BF00BF00BF0020009088
:10074000081F006840F08050091F086008460068D4
:1007500000F08050009000BF00BF08BD4438024048
:100760000146084600280DDB00BF00BF00F01F0354
:1007700001229A4043099B0003F1E023C3F80021C2
:1007800000BF00BF00BF70472DE9F05F80460D46F7
:100790001646002701F0DCFF074639462A46334655
:1007A00001F00700C0F1070ABAF1040F02D94FF0B7
:1007B000040A01E0C0F1070AD14600F1040ABAF1C7
:1007C000070F02D24FF0000A01E0A0F1030AD4465D
:1007D0004FF0010A0AFA09FAAAF1010A0AEA020A22
:1007E0000AFA0CFA4FF0010B0BFA0CFBABF1010B00
:1007F0000BEA030B4AEA0B042146404601F0B0FF26
:10080000BDE8F09F00BF00F00702064B19684FF6E5
:10081000FF031940044B0B4343EA0221014B1960CB
:1008200000BF70470CED00E00000FA0570B504460B
:100830000D460CB9012070BD5848006800F0070053
:10084000A84209D255490D700846006800F007001B
:10085000A84201D00120EEE7207800F00200022833
:100860001DD1207800F00400042805D14C48006810
:1008700040F4E0504A490860207800F00800082859
:1008800005D14748006840F4604045490860444845
:10089000006820F0F000A168084341490860207812
:1008A00000F00100A8B36068012807D13C4808386F
:1008B0000068C0F34040B8B90120BCE76068022876
:1008C00002D06068032807D1354808380068C0F3B3
:1008D000406048B90120AEE7314808380068C0F3ED
:1008E000400008B90120A6E72D48006820F0030069
:1008F000616808432A490860FFF7B8FE064609E028
:10090000FFF7B4FE801B41F28831884202D90320F0
:1009100091E707E02248006800F00C006168B0EB46
:10092000810FEDD11D48006800F00700A84209D9E9
:100930001A490D700846006800F00700A84201D06F
:10094000012078E7207800F00400042807D114483B
:10095000006820F4E050E1680843114908602078FD
:1009600000F00800082808D10D48006820F4604015
:10097000216940EAC1000A49086000F03FF80849CF
:100980000968C1F30311074A515CC8400649086071
:1009900006480068FFF79AFE00204CE7003C024042
:1009A00008380240DA270008140000200C0000205C
:1009B00001480068704700001400002000B5FFF7F0
:1009C000F7FF04490968C1F38221034A515CC8401A
:1009D00000BD000008380240EA27000800B5FFF714
:1009E000E7FF04490968C1F34231034A515CC8403A
:1009F00000BD000008380240EA2700082DE9F04752
:100A0000002400250026A1462548006800F00C00BF
:100A100020B1042805D008283AD105E0DFF88490F9
:100A200039E0DFF8849036E01D48001F006800F0D0
:100A30003F041B48001F006800F4800078B11A488A
:100A40001749091F0968C1F38811A0FB017001460D
:100A5000224600233846FFF7B3FB05460EE0114857
:100A60000F49091F0968C1F38811A0FB01700146F5
:100A7000224600233846FFF7A3FB05460848001F1F
:100A80000068C0F30140401C4600B5FBF6F902E0E7
:100A9000DFF8109000BF00BF4846BDE8F0870000B7
:100AA000083802400024F40000127A00F8B5044629
:100AB0000CB90120F8BD207800F00100002874D0A6
:100AC000F948006800F00C0004280DD0F6480068D2
:100AD00000F00C00082813D1F348001F006800F450
:100AE0008000B0F5800F0BD1EF4808380068C0F3E4
:100AF0004040002859D06068002856D10120D9E72D
:100B000000BF6068B0F5803F08D1E748083800684A
:100B100040F48030E449083908601EE06068B0F5B0
:100B2000A02F0DD1E0480838006840F48020DE494D
:100B3000083908600846006840F4803008600CE01E
:100B4000D9480838006820F48030D749083908604F
:100B50000846006820F48020086000BF606890B1FB
:100B6000FFF784FD054606E0FFF780FD401B642883
:100B700001D903209EE7CC4808380068C0F3404004
:100B80000028F1D011E0FFF771FD054606E0FFF700
:100B90006DFD401B642801D903208BE7C24808384B
:100BA0000068C0F340400028F1D1207800F0020036
:100BB00002285FD1BC48006800F00C0058B1BA4868
:100BC000006800F00C0008281CD1B748001F00681E
:100BD00000F48000B0B9B44808380068C0F34000A1
:100BE00020B1E068012801D0012063E7AE48083851
:100BF000006820F0F800216940EAC100AA490839DC
:100C0000086037E0E06800B30120A8490860FFF7FA
:100C10002DFD054606E0FFF729FD401B022801D9FE
:100C2000032047E7A04808380068C0F340000028C8
:100C3000F1D09D480838006820F0F800216940EAAA
:100C4000C10099490839086014E0002097490860FC
:100C5000FFF70CFD054606E0FFF708FD401B0228E4
:100C600001D9032026E7904808380068C0F3400007
:100C70000028F1D1207800F0080008282CD1606904
:100C8000A8B101208A490860FFF7F0FC054606E09C
:100C9000FFF7ECFC401B022801D903200AE7824839
:100CA0006C300068C0F340000028F1D014E0002050
:100CB0007F490860FFF7DAFC054606E0FFF7D6FC3F
:100CC000401B022801D90320F4E677486C30006805
:100CD000C0F340000028F1D1207800F0040004287F
:100CE00070D1002770483830006800F0805090B90B
:100CF00000BF002000906C483830006840F0805001
:100D00006949383108600846006800F0805000905A
:100D100000BF00BF01276748006800F48070B0B9C9
:100D20006448006840F4807062490860FFF79EFCE8
:100D3000054606E0FFF79AFC401B022801D9032074
:100D4000B8E65C48006800F480700028F2D000BF6C
:100D5000A068012808D154486830006840F00100BC
:100D60005149683108601DE0A06805280DD14E4842
:100D70006830006840F004004B496831086008465C
:100D8000006840F0010008600CE0474868300068E7
:100D900020F001004449683108600846006820F0EE
:100DA0000400086000BFA068A8B1FFF75FFC05461B
:100DB00009E0FFF75BFC401B41F28831884202D911
:100DC000032077E626E0384868300068C0F340002A
:100DD0000028EED013E0FFF749FC054608E0FFF7D6
:100DE00045FC401B41F28831884201D9032061E66D
:100DF0002D4868300068C0F340000028EFD1012F73
:100E000007D129483830006820F080502649383111
:100E1000086000BFA069002845D02348006800F0A2
:100E20000C0008285DD0A069022845D100201F4988
:100E30000866FFF71BFC054606E0FFF717FC401BA2
:100E4000022801D9032035E6174808380068C0F3A6
:100E500040600028F1D1D4E907010843616A40EA03
:100E600081110122A06AC2EB500041EA00412C200E
:100E7000005D41EA00600C49091F086001200B4930
:100E80000866FFF7F3FB054606E0FFF7EFFB401BA4
:100E9000022801D903200DE6034808380068C0F392
:100EA00040600028F1D049E0083802400000474285
:100EB000800E474200700040002021490866FFF77D
:100EC000D5FB054606E0FFF7D1FB401B022801D900
:100ED0000320EFE51B480068C0F340600028F2D112
:100EE0002CE0A069012800D1E4E51648001D066841
:100EF000A069012820D006F48001E06981421BD15D
:100F000006F03F01206A814216D147F6C07030409A
:100F1000616AB0EB811F0FD106F440310122A06A53
:100F2000C2EB5000B1EB004F06D106F070612C20EF
:100F3000005DB1EB006F01D00120BBE50020B9E5F9
:100F4000000047420038024070B504462546681E3E
:100F5000B0F1807F01D301200FE0681E4FF0E02147
:100F600048610F214FF0FF3001F0FAFB00204FF0F5
:100F7000E021886107200861002070BD704770473C
:100F800030B502460B4600BF92F83C00012801D163
:100F9000022030BD012082F83C0000BF022082F810
:100FA0003D00106844681068816824F07004186877
:100FB000044310684460184D1068A8421BD01068A4
:100FC000B0F1804F17D0154D1068A84213D0144DC2
:100FD0001068A8420FD0134D1068A8420BD0124DD4
:100FE0001068A84207D0114D1068A84203D0104DD8
:100FF0001068A84205D121F08001586801431068AB
:101000008160012082F83D0000BF002082F83C0092
:1010100000BF00BFBDE70000000001400004004029
:1010200000080040000C0040000401400040014066
:101030000018004010B504460CB9012010BD94F80A
:101040003D0028B9002084F83C00204600F026F836
:10105000022084F83D00211D206801F07BF801206A
:1010600084F8460000BF84F83E0001213F2001556E
:10107000402001554120015500BF00BF012084F8E8
:10108000420043200155442001554520015500BF31
:10109000012084F83D000020D0E7000038B5044668
:1010A0002068B0F1804F18D100BF0020009019488F
:1010B000006840F00100174908600846006800F029
:1010C0000100009000BF00BF002211461C20FFF766
:1010D0005BFB1C20FFF744FB1BE00F4920688842A4
:1010E00017D100BF002000900A48006840F00200BD
:1010F000084908600846006800F00200009000BF40
:1011000000BF002211461D20FFF73EFB1D20FFF708
:1011100027FB38BD4038024000040040014691F8EA
:101120003D00012801D001207047022081F83D00D8
:101130000868C06840F001000B68D8601A4B086866
:1011400098421BD00868B0F1804F17D0174B086841
:10115000984213D0164B086898420FD0154B086878
:1011600098420BD0144B0868984207D0134B08687C
:10117000984203D0124B086898420CD108688068E6
:1011800000F00702062A0CD00868006840F0010051
:101190000B68186005E00868006840F001000B6803
:1011A00018600020C0E7000000000140000400407B
:1011B00000080040000C00400004014000400140D5
:1011C000001800402DE9F04104460D46002700BFFD
:1011D00094F83C00012802D10220BDE8F0810120F2
:1011E00084F83C0000BF022084F83D002068866837
:1011F00026F0770626F47F46206886602868502807
:1012000033D00CDC202850D004DC00284BD0102830
:1012100051D149E0302849D040284CD139E06028EC
:101220002DD0702807D0B0F5805F03D0B0F5005FF7
:1012300041D10DE041E0D5E902136A68206800F071
:10124000F9FF2068866846F077062068866034E0FB
:10125000D5E902136A68206800F0ECFF2068806816
:1012600040F480402168886027E0EA686968206867
:1012700000F0F4FF5021206800F0E7FF1DE0EA686D
:101280006968206800F0FDFF6021206800F0DDFF44
:1012900013E0EA686968206800F0E0FF40212068F8
:1012A00000F0D3FF09E000BF00BF00BF296820683D
:1012B00000F0CBFF01E0012700BF00BF012084F850
:1012C0003D0000BF002084F83C0000BF384684E7A2
:1012D000704770B504462068C5682068066906F046
:1012E0000200022819D105F00200022815D1401F82
:1012F00021680861012020772068806900F00300E0
:1013000018B12046FFF7E4FF05E0204600F097F80B
:10131000204600F095F80020207706F0040004280D
:1013200019D105F00400042815D1C04321680861D3
:10133000022020772068806900F4407018B12046B0
:10134000FFF7C6FF05E0204600F079F8204600F0E0
:1013500077F80020207706F00800082819D105F05A
:101360000800082815D1C0432168086104202077AF
:101370002068C06900F0030018B12046FFF7A8FFFD
:1013800005E0204600F05BF8204600F059F8002008
:10139000207706F01000102819D105F01000102851
:1013A00015D1C04321680861082020772068C069F2
:1013B00000F4407018B12046FFF78AFF05E0204690
:1013C00000F03DF8204600F03BF80020207706F0C2
:1013D000010048B105F0010030B16FF00100216853
:1013E0000861204600F02EF806F08000802809D120
:1013F00005F08000802805D1C0432168086120469F
:10140000FFF7BCFD06F04000402809D105F0400080
:10141000402805D1C04321680861204600F01CF82F
:1014200006F02000202809D105F02000202805D151
:10143000C043216808612046FFF7A1FD70BD7047D9
:10144000704700000168B1F1804F02D10121014ACB
:10145000117070470500002070477047704700000A
:101460002DE9F84F0446206805682068C6682068A2
:1014700047694FF00009CA4605F00F09B9F1000F9E
:101480000AD105F0200038B106F0200020B1204636
:1014900000F06FFFBDE8F88FB9F1000F7CD007F0C6
:1014A000010018B906F49070002875D005F001000D
:1014B00030B106F4807018B1606C40F001006064D7
:1014C00005F0040030B107F0010018B1606C40F085
:1014D0000200606405F0020030B107F0010018B1AD
:1014E000606C40F00400606405F0080048B106F04C
:1014F000200010B907F0010018B1606C40F008003E
:101500006064606C002846D005F0200028B106F029
:10151000200010B1204600F02CFF20684069C0F385
:10152000801A606C00F0080010B9BAF1000F2DD0DD
:10153000204600F0D8FE2068406900F040004028B6
:1015400020D100BF00BF2168143151E8001F21F0F5
:1015500040002168143141E80002002AF3D100BFA5
:10156000E06B50B17F48E16B0865E06BFEF74DFF23
:1015700088B1E06B016D88470DE02046FFF76EFFF4
:1015800009E009E02046FFF769FF04E02046FFF785
:1015900065FF002060647DE7206B012878D105F0AD
:1015A0001000002874D006F010000028FAD000BF08
:1015B000002000902068006800902068406800903B
:1015C00000BF00BF2068406900F04000402870D193
:1015D000E06B006840681FFA80F8B8F1000F58D03F
:1015E000A08D404555DDA4F82E80E06BC069B0F5B4
:1015F000807F43D000BF00BF21680C3151E8001F3D
:1016000021F4807021680C3141E80002002AF3D1F6
:1016100000BF00BF00BF2168143151E8001F21F056
:1016200001002168143141E80002002AF3D100BF13
:1016300000BF00BF2168143151E8001F21F04000B5
:101640002168143141E80002002AF3D100BF2020B4
:1016500084F842000020206300BF00BF21680C31E5
:1016600051E8001F21F0100021680C3141E8000210
:10167000002AF3D100BFE06BFEF771FE0220606329
:10168000A08DE28D801A81B22046FFF7E6FE0EE0C3
:1016900052E0A08D40450AD1E06BC069B0F5807F73
:1016A00005D102206063A18D2046FFF7D6FEF1E64A
:1016B000FFE7A08DE18D401A1FFA80F8E08DD0B3CE
:1016C000B8F1000F37D000BF00BF21680C3151E8DE
:1016D000001F21F4907021680C3141E80002002ABB
:1016E000F3D100BF00BF00BF2168143151E8001FD3
:1016F00021F001002168143141E80002002AF3D1F1
:1017000000BF202084F842000020206300BF00BFFB
:1017100021680C3151E8001F21F0100021680C31C4
:1017200041E80002002AF3D100BF02206063414675
:101730002046FFF792FEADE605F0800030B106F0DE
:10174000800018B1204600F0C9FFA3E605F0400074
:1017500030B106F0400018B1204600F0FAFD99E6DD
:1017600000BF97E6D522000810B504460CB9012049
:1017700010BDA06900B100E000BF94F8410028B995
:10178000002084F84000204600F02AF8242084F845
:1017900041002068C06820F400502168C8602046DD
:1017A00000F066FE2068006920F49040216808611E
:1017B0002068406920F02A00216848612068C068DC
:1017C00040F400502168C86000206064202084F844
:1017D000410084F842000020606300BFC8E70000B9
:1017E00010B586B00446142101A8FEF721FD1F495B
:1017F0002068884238D100BF002000901C48006853
:1018000040F010001A4908600846006800F0100017
:10181000009000BF00BF00BF0020009014481438A3
:10182000006840F001001249143908600846006859
:1018300000F00100009000BF00BF4FF4C0600190B5
:1018400002200290002003900320049007200590BE
:1018500001A90848FEF702FE002211462520FEF7E6
:1018600093FF2520FEF77CFF06B010BD001001405D
:10187000443802400000024070B504460D4616464A
:1018800094F8420020280BD105B10EB9012070BD9B
:101890000020206332462946204600F0FFFEF6E78E
:1018A0000220F4E710B5044606492068884208D1B2
:1018B0000548007800F0AAFB012203490348FFF71E
:1018C000DBFF10BD001001402D000020C0000020F3
:1018D000704700BFFEE7000000B587B0142102A8E2
:1018E000FEF7A6FC00BF002001904248006840F0CF
:1018F0008000404908600846006800F080000190C0
:1019000000BF00BF00BF002001900846006840F003
:10191000020008600846006800F00200019000BF65
:1019200000BF00BF002001900846006840F008009A
:1019300008600846006800F00800019000BF00BF82
:1019400000BF002001900846006840F001000860D8
:101950000846006800F00100019000BF00BF0022AF
:101960004FF473412448FEF77BFE002244F20F013E
:101970002248FEF775FE4FF470400290012003905C
:10198000002004900120059002A91B48FEF766FD87
:101990004FF48040029001200390002004900590B5
:1019A00002A91648FEF75AFD0F200290012003906D
:1019B000002004900120059002A91048FEF74EFD7A
:1019C000F0200290002003900120049002A90B480F
:1019D000FEF744FD4FF44070029011200390002068
:1019E00004900220059002A90348FEF737FD07B0D6
:1019F00000BD00003038024000040240000C0240EC
:101A000000B587B0002003900490059006900190E7
:101A100002904FF080401449086042F2CF004860C5
:101A200000211148816044F61F61C16000210161FD
:101A30008161FFF7FFFA08B1FEF78EFC4FF480508A
:101A4000039003A90848FFF7BDFB08B1FEF784FC2B
:101A500000200190029001A90348FFF791FA08B114
:101A6000FEF77AFC07B000BD3000002000B587B05B
:101A70000020039004900590069001900290144875
:101A800014490860002048600021124881604FF628
:101A9000FF71C160002101618161FFF7CBFA08B1DC
:101AA000FEF75AFC4FF48050039003A90948FFF752
:101AB00089FB08B1FEF750FC00200190029001A9BB
:101AC0000448FFF75DFA08B1FEF746FC07B000BD19
:101AD000000400407800002010B50B480B49086056
:101AE0004FF4E1304860002108488160C160016125
:101AF0000C21416100218161C161FFF735FE08B110
:101B0000FEF72AFC10BD000000100140C0000020BC
:101B100070B500F02BF80446FEF7A8FD0546104806
:101B20000078844205D00E4804700E4805600020FD
:101B300070BD0C480068281A14280FD344B10A4815
:101B4000007828B908480470054804702046EFE77B
:101B500014B90020044908700020E9E70020E7E7F5
:101B6000180000201C0000202000002010B50024D8
:101B700000F07EF8002201213C48FEF771FD802133
:101B80003A48FEF765FD00B9042440213748FEF7C6
:101B90005FFD00B9082420213448FEF759FD00B943
:101BA0000C2410213148FEF753FD00B9102400F039
:101BB0005FF8002202212D48FEF752FD80212B48BC
:101BC000FEF746FD00B9032440212848FEF740FDFA
:101BD00000B9072420212548FEF73AFD00B90B245F
:101BE00010212248FEF734FD00B90F2400F040F820
:101BF000002204211D48FEF733FD80211B48FEF71B
:101C000027FD00B9022440211848FEF721FD00B944
:101C1000062420211548FEF71BFD00B90A241021D7
:101C20001248FEF715FD00B90E2400F021F800223D
:101C300008210E48FEF714FD80210C48FEF708FD30
:101C400000B9012440210948FEF702FD00B905242E
:101C500020210648FEF7FCFC00B9092410210348A6
:101C6000FEF7F6FC00B90D24204610BD000C024022
:101C700010B5012211460948FEF7F2FC01220221AB
:101C80000648FEF7EDFC012204210448FEF7E8FCBB
:101C9000012208210148FEF7E3FC10BD000C0240C0
:101CA00000BFFEE700BFFEE710B5FEF7DFFC01490D
:101CB000086010BD2400002070B500240EE0002153
:101CC000204600F0F3F8002504E0002000F080F941
:101CD000681CC5B2802DF8DB601CC4B2082CEEDB9A
:101CE00070BD000010B5012211020448FEF7B8FCD7
:101CF000012251020148FEF7B3FC10BD000402406E
:101D000070B5054600241FE080202041284008B11E
:101D1000012000E0002002464FF400711448FEF755
:101D20009FFC012211021248FEF79AFC0520FEF7E3
:101D3000D3FA00224FF480710D48FEF791FC052084
:101D4000FEF7CAFA601CC4B2082CDDDB01221102C6
:101D50000748FEF785FC0520FEF7BEFA00224FF487
:101D600080710348FEF77CFC0520FEF7B5FA70BDD4
:101D70000004024010B5012251020D48FEF770FC2C
:101D8000012211020A48FEF76BFC00224FF4007199
:101D90000748FEF765FC0520FEF79EFA00224FF487
:101DA00080710348FEF75CFC0520FEF795FA10BD34
:101DB0000004024010B500224FF400710848FEF7FD
:101DC0004FFC012211020648FEF74AFC0122510293
:101DD0000348FEF745FC0520FEF77EFA10BD000023
:101DE0000004024070B5002406E0002500E06D1CF0
:101DF000B5F57A7FFBD3641CB4F57A7FF5D3142054
:101E0000FEF718FBFFF76EFFAE2000F0D1F8D520EB
:101E100000F0CEF8802000F0CBF8A82000F0C8F841
:101E20003F2000F0C5F8D32000F0C2F8002000F0F9
:101E3000BFF8402000F0BCF8A12000F0B9F8C8209D
:101E400000F0B6F8DA2000F0B3F8122000F0B0F895
:101E5000812000F0ADF8CF2000F0AAF8D92000F0E2
:101E6000A7F8F12000F0A4F8DB2000F0A1F8302062
:101E700000F09EF8A42000F09BF8A62000F098F84F
:101E80008D2000F095F8142000F092F8AF2000F0BB
:101E90008FF8FFF711FF70BD10B50246012000E07A
:101EA00050430B1EA1F10101FAD110BD70B50546DA
:101EB0000C4645F0B00000F07BF8102141EA141008
:101EC00000F076F804F00F0000F072F870BD00002A
:101ED0002DE9F04105460E461746721ED206110E38
:101EE0006A1E5206100EFFF7E1FF002409E0A7F179
:101EF0002001134A02EB0111085D00F069F8601C33
:101F0000C4B2082CF3DB721ED206110E6A1E012326
:101F100003EB4202D0B2FFF7C9FF00240BE0A7F1A8
:101F20002001074A02EB011204F10801505C00F0A5
:101F30004FF8601CC4B2082CF1DBBDE8F081000052
:101F4000F22700082DE9F04780460E4617461D4649
:101F5000002415E0281B411E0A20FFF79DFFB7FB58
:101F6000F0F00A21B0FBF1F201FB120000F13009A0
:101F70003019C1B24A464046FFF7AAFF601CC4B2FE
:101F8000AC42E7DBBDE8F0872DE9F04107460E469D
:101F90001546002407E02A5D3019C1B23846FFF724
:101FA00097FF601CC4B2285D0028F4D1BDE8F08121
:101FB00010B50446FFF7DEFE7820FFF7A1FE0020F3
:101FC000FFF79EFE2046FFF79BFEFFF7F3FE10BDD6
:101FD00010B50446FFF7CEFE7820FFF791FE4020B3
:101FE000FFF78EFE2046FFF78BFEFFF7E3FE10BDE6
:101FF0007047704710B5012202490348FFF73CFCC7
:1020000010BD00002D000020C000002012490978FA
:10201000012900D170470A2801D00D280ED10F499F
:102020000978002916DD01210B4A117000210C4AA4
:102030000A4B1B78D154094A11700BE00749097803
:102040003F2907DA05490A780978491C034B1970BA
:102050000349885400BFDDE72C0000202E0000203B
:102060000801002010B5FEF707FB10BD00B593B0C6
:10207000302107A8FEF7DCF8142102A8FEF7D8F8F3
:1020800000BF002001902448006840F080502249A1
:1020900008600846006800F08050019000BF00BF53
:1020A00000BF002001901D48006840F480401B499B
:1020B00008600846006800F48040019000BF00BF3F
:1020C000012007900004089002200D9041050E9118
:1020D00004210F91A8211091022111910421129144
:1020E00007A8FEF7E3FC08B1FEF736F90F200290CF
:1020F00002200390002004904FF4A05005904FF46C
:1021000080500690052102A8FEF790FB08B1FEF76B
:1021100023F913B000BD00004038024000700040B9
:102120000348006840F470000149086070470000EF
:1021300088ED00E010B50248FFF7CBF810BD0000B5
:102140003000002010B50248FFF7C3F810BD0000B2
:102150007800002010B502682B4B98420ED0B0F1E9
:10216000804F0BD0294B984208D0294B984205D07C
:10217000284B984202D0284B984203D122F070029B
:102180004B681A43204B984220D0B0F1804F1DD0AD
:102190001E4B98421AD01E4B984217D01D4B9842A6
:1021A00014D01D4B984211D01C4B98420ED01C4BA2
:1021B00098420BD01B4B984208D01B4B984205D03D
:1021C0001A4B984202D01A4B984203D122F4407223
:1021D000CB681A4322F080034C6943EA04028B68FF
:1021E000C3620B688362084B984202D00A4B984244
:1021F00001D10B690363036843F004030360012307
:102200004361026010BD0000000001400004004076
:1022100000080040000C0040000401400040014064
:10222000004401400048014000180040001C0040EC
:102230000020004030B50C46816821F47F4142EA1D
:10224000032525432943816030BD0A46816821F07A
:10225000700142F0070319438160704730B50B46A7
:102260001446026A056A25F001050562816921F0BC
:10227000F00141EA041122F00A021A43816102626C
:1022800030BD30B50B461446026A056A25F01005CC
:102290000562816921F4704141EA043122F0A00213
:1022A00042EA03128161026230BD000010B5FDF701
:1022B000FDFF0748FEF732FFFFF7F6FCFFF79AFE37
:1022C000FFF790FD1420FEF7B5F8FEF71DF810BDDE
:1022D0003000002070B50446A56B0020E885284634
:1022E000FFF7BCF870BD00BF00BF02680C3252E8B7
:1022F000002F22F4907102680C3242E80013002B88
:10230000F3D100BF00BF00BF0268143252E8002FB3
:1023100022F001010268143242E80013002BF3D1CD
:1023200000BF016B01290ED100BF00BF02680C3253
:1023300052E8002F22F0100102680C3242E800132C
:10234000002BF3D100BF202180F84210002101634F
:10235000704710B504462068C06820F0400021682E
:10236000C860202084F841002046FFF7B1FA002021
:1023700010BDF8B504460025002694F84200222836
:1023800073D1A068B0F5805F0BD1206948B9A66A07
:1023900020684068C0F308003080A06A801CA062FA
:1023A00014E0A56AA068B0F5805F03D0A06828B9E2
:1023B000206918B920684068287004E020684068E7
:1023C00000F07F002870A06A401CA062E08D401ED3
:1023D00080B2E085002846D12068C06820F0200047
:1023E0002168C8602068C06820F480702168C860D7
:1023F0002068406920F0010021684861202084F8AD
:10240000420000206063206B012826D10020206359
:1024100000BF00BF21680C3151E8001F21F01000FF
:1024200021680C3141E80002002AF3D100BF206886
:10243000006800F0100010280AD100BF00200090B2
:1024400020680068009020684068009000BF00BFCE
:10245000A18D2046FFF701F802E02046FFF722FA9F
:102460000020F8BD01E00020FBE70220F9E70000B2
:102470002DE9F84F04462068006920F44050E168D7
:102480000843216808612169A0680843616908431D
:10249000E169084300902068C06849F20C618843F4
:1024A000009908432168C8602068406920F44070A2
:1024B000A16908432168486176492068884203D0B1
:1024C00075492068884203D1FEF788FA814602E008
:1024D000FEF774FA8146E069B0F5004F6CD1022036
:1024E0006168A0FB015003461920A9FB007001465A
:1024F0002A463846FDF764FE6421B0FBF1F04FEA4E
:10250000001A02206168A0FB01510B461920A9FBAB
:1025100000712A463846FDF753FE83460220616863
:10252000A0FB015003461920A9FB00712A4638463A
:10253000FDF746FE6421B0FBF1F000EBC00101EBBA
:102540000010ABEB8000322101EBC0006421B0FB36
:10255000F1F000F0F8000AEB400A02206168A0FBED
:10256000015003461920A9FB007001462A4638464F
:10257000FDF726FE834602206168A0FB015003465A
:102580001920A9FB00712A463846FDF719FE64217F
:10259000B0FBF1F000EBC00101EB0010ABEB8000F1
:1025A000322101EBC0006421B0FBF1F000F0070024
:1025B0005044216888606AE004206168A0FB0150F3
:1025C00003461920A9FB007001462A463846FDF74C
:1025D000F7FD824604206168A0FB015003461920E4
:1025E000A9FB007001462A463846FDF7E9FD642143
:1025F000B0FBF1F000EBC00101EB0010AAEB800092
:10260000322101EB00106421B0FBF1F000F0F00A80
:1026100004206168A0FB017003461920A9FB00514A
:102620003A462846FDF7CCFD6421B0FBF1F00AEBF9
:10263000001A04206168A0FB01510B461920A9FB78
:1026400000712A463846FDF7BBFD834604206168C9
:10265000A0FB015003461920A9FB007001462A4641
:102660003846FDF7ADFD6421B0FBF1F000EBC00191
:1026700001EB0010ABEB8000322101EB0010642174
:10268000B0FBF1F000F00F00504421688860BDE815
:10269000F88F0000001001400014014010B50346FF
:1026A00099629A85DA8500205864222083F84200D6
:1026B000186928B11868C06840F480701C68E06030
:1026C0001868406940F001001C6860611868C068C3
:1026D00040F020001C68E060002010BD014691F829
:1026E0004100212828D18868B0F5805F0BD10869A6
:1026F00048B90A6A1088C0F308000B685860086A75
:10270000801C086205E00B6A581C086218780B6888
:102710005860C88C401E80B2C88458B90868C06828
:1027200020F080000B68D8600868C06840F0400066
:102730000B68D860002070470220FCE710B5024803
:10274000FEF78EFE10BD0000C000002000BFFEE7B7
:1027500002480068C0F30220704700000CED00E062
:1027600010B5002804DB0A07130E054A135406E0CF
:102770000A07140E034A00F00F031B1FD45410BDA8
:1027800000E400E018ED00E002E008C8121F08C1F4
:10279000002AFAD170477047002001E001C1121FE2
:1027A000002AFBD17047FDF773FFFFF75FFCFFF7CF
:1027B00093F8FFF75BF9FFF78FF9FFF721F9FFF7C0
:1027C00075FD09E0FFF7A4F9044602232246012122
:1027D0000846FFF7B7FB00BFF4E700000000000069
:1027E00000000102030406070809000000000102BE
:1027F00003040000000000000000000000000000D2
:102800000000000000F8000000000000003330006D
:10281000000000100C06100C060000000000000074
:10282000000040C07840C0784000043F04043F04EA
:102830000400007088FC08300000001820FF211EF2
:102840000000F008F000E018000000211C031E2129
:102850001E0000F00888700000001E2123241927A4
:10286000211010160E000000000000000000000003
:102870000000000000E0180402000000000718201B
:10288000400000020418E00000000040201807008B
:102890000000404080F0804040000202010F010231
:1028A0000200000000F0000000000101011F010112
:1028B0000100000000000000000080B07000000077
:1028C0000000000000000000000000010101010103
:1028D0000101000000000000000000303000000096
:1028E000000000000000806018040060180601006D
:1028F000000000E010080810E000000F1020201079
:102900000F00001010F8000000000020203F2020E1
:102910000000007008080888700000302824222178
:10292000300000300888884830000018202020112E
:102930000E000000C02010F8000000070424243F0F
:10294000240000F8088888080800001921202011B8
:102950000E0000E0108888180000000F11202011E0
:102960000E0000380808C83808000000003F0000CA
:1029700000000070880808887000001C22212122B5
:102980001C0000E010080810E000000031222211B5
:102990000F00000000C0C000000000000030300048
:1029A00000000000008000000000000080600000C7
:1029B0000000000080402010080000010204081000
:1029C000200040404040404040000404040404040F
:1029D00004000008102040800000002010080402BD
:1029E0000100007048080808F000000000303601BF
:1029F0000000C030C828E810E0000718272423147E
:102A00000B000000C038E0000000203C2302022739
:102A1000382008F8888888700000203F2020201186
:102A20000E00C030080808083800071820202010C1
:102A3000080008F808080810E000203F20202010B7
:102A40000F0008F88888E8081000203F2020232085
:102A5000180008F88888E8081000203F20000300CC
:102A60000000C03008080838000007182020221E87
:102A7000020008F808000008F808203F21010121A1
:102A80003F20000808F8080800000020203F202010
:102A9000000000000808F8080800C08080807F005F
:102AA000000008F888C028180800203F20012638B8
:102AB000200008F8080000000000203F202020200F
:102AC000300008F8F800F8F80800203F003F003F09
:102AD000200008F830C00008F808203F2000071840
:102AE0003F00E01008080810E0000F102020201020
:102AF0000F0008F808080808F000203F2101010134
:102B00000000E01008080810E0000F1824243850D6
:102B10004F0008F8888888887000203F2000030C48
:102B20003020007088080808380000382021212251
:102B30001C00180808F8080818000000203F2000B2
:102B4000000008F808000008F808001F20202020D6
:102B50001F000878880000C83808000007380E01F8
:102B60000000F80800F80008F800033C0700073CE4
:102B70000300081868808068180820302C03032C94
:102B800030200838C800C83808000000203F200066
:102B9000000010080808C838080020382621202026
:102BA0001800000000FE020202000000007F40400A
:102BB0004000000C30C0000000000000000106389A
:102BC000C00000020202FE000000004040407F0002
:102BD00000000000040202020400000000000000E7
:102BE00000000000000000000000808080808080E5
:102BF00080800002020400000000000000000000CD
:102C00000000000080808080000000192422222221
:102C10003F2008F8008080000000003F11202011B4
:102C20000E000000008080800000000E1120202097
:102C30001100000000808088F800000E1120201094
:102C40003F200000808080800000001F222222227E
:102C50001300008080F0888888180020203F202002
:102C600000000000808080808000006B949494932A
:102C7000600008F8008080800000203F21000020D4
:102C80003F2000809898000000000020203F202076
:102C90000000000000809898000000C08080807FC5
:102CA000000008F8000080808000203F24022D30C2
:102CB0002000000808F8000000000020203F20202D
:102CC00000008080808080808000203F20003F20A6
:102CD000003F8080008080800000203F2100002095
:102CE0003F200000808080800000001F20202020E6
:102CF0001F00808000808000000080FFA120201144
:102D00000E000000008080808000000E112020A0B6
:102D1000FF80808080008080800020203F21200074
:102D2000010000008080808080000033242424245F
:102D30001900008080E0808000000000001F20203B
:102D400000008080000000808000001F20202010F4
:102D50003F20808080000080808000010E300806C7
:102D6000010080800080008080800F300C030C30D8
:102D70000F0000808000808080000020312E0E3106
:102D80002000808080000080808080818E70180606
:102D9000010000808080808080000021302C222172
:102DA000300000000000807C020200000000003FB4
:102DB000404000000000FF00000000000000FF0095
:102DC00000000002027C800000000040403F000044
:102DD00000000006010102020404000000000000DF
:102DE00000000000042E0008000000203000000059
:102DF00088270008342E0008300000201805000045
:102E000098270008000000000000000000000000FB
:102E100010000000010000000024F4000000000089
:102E200000000000000000000000000000000000A2
:042E3000000000009E
:040000050800018965
:00000001FF
