:020000040800F2
:10000000180800209D010008C92600089D2200084C
:10001000C5260008F1020008A53E00080000000007
:10002000000000000000000000000000693000082F
:100030009103000800000000ED2F00087D36000845
:10004000B7010008B7010008B7010008B7010008B0
:10005000B7010008B7010008B7010008B7010008A0
:10006000B7010008B7010008B7010008B701000890
:10007000B7010008B7010008B7010008B701000880
:10008000B7010008B7010008B7010008B701000870
:10009000B7010008B7010008B7010008B701000860
:1000A000B7010008B7010008B7010008B701000850
:1000B0004D3700085D370008B7010008B701000898
:1000C000B7010008B7010008B7010008B701000830
:1000D000B7010008953E0008B7010008B701000805
:1000E000B7010008B7010008B7010008B701000810
:1000F000B7010008B7010008B7010008B701000800
:10010000B7010008B7010008B7010008B7010008EF
:10011000B7010008B7010008B7010008B7010008DF
:10012000B7010008B7010008B7010008B7010008CF
:10013000B7010008B7010008B7010008B7010008BF
:10014000B7010008B7010008B7010008B7010008AF
:10015000B7010008B7010008B7010008B70100089F
:10016000B7010008B7010008B7010008B70100088F
:10017000B7010008B7010008B7010008000000003F
:10018000B7010008B7010008DFF80CD000F09EF8B6
:10019000004800472544000818080020064880470A
:1001A00006480047FEE7FEE7FEE7FEE7FEE7FEE75C
:1001B000FEE7FEE7FEE7FEE73937000889010008A1
:1001C0002DE9F05F0546002092469B46884606468C
:1001D000814640241BE0284641464746224600F01F
:1001E00065F853465A46C01A914110D31146184635
:1001F000224600F04CF82D1A67EB01084F462246C4
:100200000120002100F043F817EB00094E41201EA9
:10021000A4F10104DFDC484631462A464346BDE8E6
:10022000F09FD2B201E000F8012B491EFBD27047CB
:100230000022F6E710B513460A4604461946FFF7B2
:10024000F0FF204610BD10B5002200E0521C835C78
:100250008C5CA34201D1002BF8D1D8B2E1B2401A94
:1002600010BD30B50B46014600202022012409E0D4
:1002700021FA02F59D4205D303FA02F5491B04FA5F
:1002800002F52844151EA2F10102F1DC30BD202A3E
:1002900004DB203A00FA02F1002070479140C2F1DD
:1002A000200320FA03F3194390407047202A04DB0F
:1002B000203A21FA02F00021704721FA02F3D040DF
:1002C000C2F120029140084319467047064C074D81
:1002D00006E0E06840F0010394E807009847103416
:1002E000AC42F6D3FFF754FF504A0008704A0008AA
:1002F00000BFFEE710B502F02FFC0446B4F1FF3F4B
:1003000011D0012C04D0052C05D0062C21D112E0EF
:1003100000F022FA10BD00F00BFA02200E4908701E
:1003200000F0AAFB15E000F0E7F902200A49087086
:1003300000F0A2FB0DE00020084908700849087091
:1003400001200849087002200349087000F094FB5E
:1003500000BF00BF00BFDDE709000020050000204E
:1003600006000020080000200748006840F0807068
:10037000054908600020054948600846006840F0CB
:100380000100086070470000FCED00E0001000E094
:100390007047000010B5084B5968084B1B68084CA3
:1003A000B3FBF4F303FB00F200BF034B5B685B1A83
:1003B0009342FAD310BD0000001000E018000020A6
:1003C00040420F0010B502F0B3F908A2012108461F
:1003D00002F016FB09A20121032002F011FB0BA27F
:1003E0000121042002F00CFB10BD00005072657367
:1003F00073204E657720505744000000313120545F
:100400006F20436F6E6669726D00000031342054B6
:100410006F2044656C6574650000000010B502F043
:1004200087F908A20121084602F0EAFA09A201218F
:10043000032002F0E5FA0BA20121042002F0E0FA09
:1004400010BD0000506C6561736520507265737358
:1004500000000000313120546F20436F6E666972D6
:100460006D000000313420546F2044656C65746564
:10047000000000002DE9F043D5B08248007820B19B
:100480004FF0FF3055B0BDE8F08301207D49087082
:1004900000207D49087001207C49087000207C49BB
:1004A000087001207B490870002012E000210CE058
:1004B000002200EBC003784C23445A5400EBC003E5
:1004C000764C23445A544A1CD1B20929F0DB411C12
:1004D000C8B21028EADB4FF4807115A8FFF7A8FE18
:1004E000402105A8FFF7A4FE0020049003900026F9
:1004F000002703A8402105AB04AACDE9001089001C
:1005000015A802F075FD01287ED1BDF810006449E0
:100510000870BDF80C006349087000240025A1464E
:10052000A046BDF8100010B1BDF80C0068B902F08B
:10053000FFF85DA20121084602F062FA4FF49670BE
:1005400000F0FEFB4FF0FF309CE769E00CE015A8DF
:10055000025D06EBC600504943184846411C01F0B5
:10056000FF091A54601CC4B2BDF81000844206DAB8
:1005700015A8005D412802D0B9F1080FE7DBBDF8EE
:100580001000844215DA15A8005D412811D14122DE
:100590003046711CCEB200EBC0003F4943184846BC
:1005A000411C01F0FF091A54601CC4B24FF000094D
:1005B00000E041E00CE005A8425D07EBC7003749C9
:1005C00043184046411C01F0FF081A54681CC5B28C
:1005D000BDF80C00854206DA05A8405D5A2802D015
:1005E000B8F1080FE7DBBDF80C00854217DA05A863
:1005F000405D5A2813D15A223846791CCFB200EBFD
:10060000C0002649431800E02CE04046411C01F0A0
:10061000FF081A54681CC5B24FF0000800E00BE058
:10062000BDF81000844207DABDF80C00854203DAF9
:10063000102E01DA102F89DB00BFBE4201DA3046EE
:1006400000E038461249087008460078801C0321F3
:1006500090FBF1F00F4908700846007808B90120B6
:1006600008700CE013A20121084602F0C9F916A295
:100670000121084602F0C4F94FF0FF3002E70120E3
:1006800000E7000005000020060000200800002010
:100690009200002007000020B40200204403002044
:1006A00090000020910000204E6F205265636F7211
:1006B00064730000202020202020202020202020E3
:1006C00020202020200000005265616420457272C5
:1006D0006F72000010B502F02BF803A2012108464A
:1006E00002F08EF910BD0000313420546F205365A4
:1006F0006C6578637400000010B502F019F807A269
:100700000121084602F07CF907A20121022002F033
:1007100077F94FF4967000F013FB10BD4368616EDB
:1007200067652045727200004C656E20457272004C
:1007300010B501F0FDFF05A20121084602F060F9A5
:100740004FF4967000F0FCFA10BD00004368616E33
:100750006765204F4B00000010B50A480078401E26
:1007600009490A5C012307480178022002F026F9B2
:1007700004480078401CC1B204A2022002F040F9F3
:1007800010BD00005C0000204E0000202020200052
:1007900010B50223064802780521032002F00EF965
:1007A0000223044802780521042002F007F910BD55
:1007B00000000020020000202DE9F04744480078A6
:1007C00008B1BDE8F08701204149087001F0B0FF91
:1007D0004048007828B940A20121084602F010F9EB
:1007E000EFE740480078012802DA01203D4908700F
:1007F0003C4800783C490978884203DD3A48007853
:100800003849087039A20121084602F0F9F801239D
:10081000344802780E21184602F0D0F80024A04691
:10082000022730480078401E00EB4000C4B22D483B
:10083000007800EB400000F0FF0826480078804573
:1008400002DD244890F800803DE04FF0010A4FF0AF
:100850000A09002500260EE004EBC400274B1844CB
:10086000425D51464B1C03F0FF0A0123384602F05B
:10087000A5F8681CC5B2082D06DA04EBC4001F49B0
:100880000844405D4128E7D10FE004EBC4001C4957
:100890000844825D02234946384602F08FF809F188
:1008A000020000F0FF09701CC6B2082E06DA04EB45
:1008B000C40013490844805D5A28E6D1781CC7B2A9
:1008C000601CC4B200BF4445BFDB00BF79E7000035
:1008D00006000020920000204E6F205265636F7268
:1008E0006473000008000020070000205265636F59
:1008F00072643A20506167653A000000B40200203B
:100900004403002010B50A480078401E09490A5CDB
:10091000012307480178022002F050F804480078CB
:10092000401CC1B204A2022002F06AF810BD00000F
:100930005B00002046000020202020202000000036
:1009400010B501F0F5FE05A20121084602F058F8A5
:100950004FF4967000F0F4F910BD00004C656E2065
:100960004572720010B509A20121022002F048F878
:1009700008A20821022002F043F802230748027867
:100980000621184602F01AF810BD00004672657183
:100990003A000000202020202000000064000020F9
:1009A00010B50748007828B106A20121084602F0D8
:1009B00027F804E006A20121084602F021F810BD44
:1009C0006200002053746174653A4F70656E2000B8
:1009D00053746174653A436C6F73650010B501F030
:1009E000A7FE0AA20121084602F00AF809A2012185
:1009F000022002F005F809A20121032002F000F80C
:100A000008A20121042001F0FBFF10BD53746174A2
:100A1000653A0000467265713A00000054656D3A0F
:100A20000000000048756D3A0000000010B501F0AC
:100A30007FFE05A20121084601F0E2FF4FF4967007
:100A400000F07EF910BD00004D656D20457272000A
:100A500010B501F06DFE05A20121084601F0D0FF9E
:100A60004FF4967000F06CF910BD0000566572747A
:100A7000696679204F4B000010B501F059FE10A2B5
:100A80000121084601F0BCFF4FF4FA7000F058F95C
:100A900001F04EFE0EA20121084601F0B1FF10A2A6
:100AA0000121022001F0ACFF10A20121032001F07E
:100AB000A7FF12A20121042001F0A2FF10BD000037
:100AC000416C7265616479204F70656E00000000B2
:100AD000313320546F2053656C656374000000004F
:100AE000313220546F20436C6F73650031342054D1
:100AF0006F204368616E6765000000003135205447
:100B00006F2056696577000010B501F011FE05A24F
:100B10000121084601F074FF4FF4967000F010F9BF
:100B200010BD0000507764204572720010B501F0CE
:100B3000FFFD10A20121084601F062FF11A2012170
:100B4000032001F05DFF13A20121042001F058FFF2
:100B5000002409E0601CC4B2601E11490A5C012334
:100B60002146022001F02AFF0E4800788442F1DB82
:100B700010BD00004E6F772050617373776F726401
:100B800000000000313120546F20436F6E6669729F
:100B90006D000000313320546F20526573656C0086
:100BA000260000205600002010B501F0C1FD03A270
:100BB0000121084601F024FF10BD0000506173734D
:100BC000776F7264207265637300000010B501F0E6
:100BD0008FFF0446032C03D104A003F037FA04E08E
:100BE000042C02D105A003F031FA10BD4E6F726DD6
:100BF000616C20416C61726D000000005370656390
:100C000069616C20416C61726D00000072B600BFBA
:100C1000FEE7000070B504460D46164600F0ACF93C
:100C200010490968401A4FF47A71B0FBF1F00E498F
:100C30000860084600683C21B0FBF1F201FB12009D
:100C4000307009480068B0FBF1F0B0FBF1F201FB35
:100C500012002870044800684FF46161B0FBF1F0A5
:100C6000207070BD680000206C00002070B5044644
:100C7000A56D00F081F9064694F83500022808D0E9
:100C80008020606500BF002084F8340000BF012090
:100C900070BD2068006820F0160021680860206898
:100CA000406920F0800021684861206C08B9A06C80
:100CB00028B12068006820F00800216808602068DA
:100CC000006820F001002168086010E000F054F98D
:100CD000801B05280BD920206065032084F835008F
:100CE00000BF002084F8340000BF0320D0E7206854
:100CF000006800F001000028E8D194F85C103F2063
:100D00008840A860012084F8350000BF002084F8E6
:100D1000340000BF00BFBBE7014691F83500022850
:100D200003D08020486501207047052081F83500F8
:100D30000868006820F001000A6810600020F3E7EE
:100D400070B5044600F018F906462546681C10B137
:100D500004480078054400BF00F00EF9801BA8424B
:100D6000FAD370BD14000020F8B502460B460025EA
:100D7000002400200021D6E0012606FA01F51E68B5
:100D800006EA0504AC4274D11E7906F00306012E72
:100D900004D01E7906F00306022E13D190684F008E
:100DA0000326BE40B0434F00DE68BE403043906033
:100DB000506801268E40B0431E79C6F300168E405F
:100DC000304350601E7906F00306032E09D0D06828
:100DD0004F000326BE40B0434F009E68BE403043E4
:100DE000D0601E7906F00306022E13D1CF0802F15F
:100DF000200656F827004E07F70E0F26BE40B043D8
:100E00004F07FF0E1E69BE403043CF0802F1200697
:100E100046F8270010684F000326BE40B0431E79F5
:100E200006F003064F00BE40304310605E6806F4D3
:100E30004036002E76D000BF002600963C4E366825
:100E400046F480463A4F3E603E46366806F4804699
:100E5000009600BF00BF374E8F0856F827008E0758
:100E6000370F0F26BE40B043334EB24202D10026A8
:100E700024E057E0314EB24201D101261EE0304E4F
:100E8000B24201D1022619E02E4EB24201D1032610
:100E900014E02D4EB24201D104260FE02B4EB24297
:100EA00001D105260AE02A4EB24201D1062605E00C
:100EB000284EB24201D1072600E008268F073F0FD7
:100EC000BE4030431B4E8F0846F82700224E306844
:100ED000A0435E6806F4801606B120431E4E3060C3
:100EE000361D3068A0435E6806F4001606B1204344
:100EF000194E361D3060184E361F3068A0435E68AC
:100F000006F4003606B12043134E361F3060361FFC
:100F10003068A0435E6806F4803606B120430E4E6A
:100F2000083E3060491C1029FFF426AFF8BD0000D0
:100F300044380240083801400000024000040240EA
:100F400000080240000C0240001002400014024061
:100F500000180240001C0240083C01400246136990
:100F60000B400BB1012000E0002070470AB1816105
:100F700001E00B048361704701480068704700007E
:100F80000C0000200348006803490978084401491F
:100F9000086070470C0000201400002010B50D48B8
:100FA000006840F400700B4908600846006840F48F
:100FB000806008600846006840F480700860032084
:100FC00000F0A6F80F2000F007F800F02BF8002042
:100FD00010BD0000003C024070B504460E48007889
:100FE0004FF47A71B1FBF0F00C490968B1FBF0F5F0
:100FF000284600F02FFC08B1012070BD102C07D24C
:1010000000222146501E00F045F80548046001E02A
:101010000120F2E70020F0E7140000201800002073
:101020001000002008B500BF002000900E480068A6
:1010300040F480400C4908600846006800F4804095
:10104000009000BF00BF00BF00200090081F006894
:1010500040F08050091F08600846006800F080508A
:10106000009000BF00BF08BD44380240014608465A
:1010700000280DDB00BF00BF00F01F0301229A40D3
:1010800043099B0003F1E023C3F8002100BF00BF28
:1010900000BF70472DE9F05F80460D4616460027D9
:1010A00002F0E4FF074639462A46334601F00700BE
:1010B000C0F1070ABAF1040F02D94FF0040A01E0A7
:1010C000C0F1070AD14600F1040ABAF1070F02D2B3
:1010D0004FF0000A01E0A0F1030AD4464FF0010AE4
:1010E0000AFA09FAAAF1010A0AEA020A0AFA0CFA49
:1010F0004FF0010B0BFA0CFBABF1010B0BEA030BEE
:101100004AEA0B042146404602F0B8FFBDE8F09FD2
:1011100000BF00F00702064B19684FF6FF031940A5
:10112000044B0B4343EA0221014B196000BF704797
:101130000CED00E00000FA0570B504460D460CB950
:10114000012070BD5848006800F00700A84209D28D
:1011500055490D700846006800F00700A84201D00C
:101160000120EEE7207800F0020002281DD120784F
:1011700000F00400042805D14C48006840F4E05019
:101180004A490860207800F00800082805D147483F
:10119000006840F46040454908604448006820F019
:1011A000F000A168084341490860207800F0010080
:1011B000A8B36068012807D13C4808380068C0F32C
:1011C0004040B8B90120BCE76068022802D06068DE
:1011D000032807D1354808380068C0F3406048B993
:1011E0000120AEE7314808380068C0F3400008B974
:1011F0000120A6E72D48006820F00300616808433D
:101200002A490860FFF7B8FE064609E0FFF7B4FE7A
:10121000801B41F28831884202D9032091E707E020
:101220002248006800F00C006168B0EB810FEDD13E
:101230001D48006800F00700A84209D91A490D703E
:101240000846006800F00700A84201D0012078E7B6
:10125000207800F00400042807D11448006820F426
:10126000E050E168084311490860207800F0080068
:10127000082808D10D48006820F46040216940EA40
:10128000C1000A49086000F03FF808490968C1F345
:101290000311074A515CC8400649086006480068C7
:1012A000FFF79AFE00204CE7003C0240083802405D
:1012B0004844000818000020100000200148006881
:1012C000704700001800002000B5FFF7F7FF044941
:1012D0000968C1F38221034A515CC84000BD000087
:1012E000083802405844000800B5FFF7E7FF0449FA
:1012F0000968C1F34231034A515CC84000BD000097
:1013000008380240584400082DE9F0470024002521
:101310000026A1462548006800F00C0020B10428F2
:1013200005D008283AD105E0DFF8849039E0DFF8ED
:10133000849036E01D48001F006800F03F041B4801
:10134000001F006800F4800078B11A481749091F8F
:101350000968C1F38811A0FB0170014622460023F1
:101360003846FEF72DFF05460EE011480F49091FCC
:101370000968C1F38811A0FB0170014622460023D1
:101380003846FEF71DFF05460848001F0068C0F3F9
:101390000140401C4600B5FBF6F902E0DFF8109072
:1013A00000BF00BF4846BDE8F08700000838024093
:1013B0000024F40000127A00F8B504460CB90120AC
:1013C000F8BD207800F00100002874D0F9480068CA
:1013D00000F00C0004280DD0F648006800F00C0066
:1013E000082813D1F348001F006800F48000B0F50E
:1013F000800F0BD1EF4808380068C0F34040002848
:1014000059D06068002856D10120D9E700BF606834
:10141000B0F5803F08D1E7480838006840F48030D4
:10142000E449083908601EE06068B0F5A02F0DD1CE
:10143000E0480838006840F48020DE490839086038
:101440000846006840F4803008600CE0D94808384D
:10145000006820F48030D7490839086008460068E1
:1014600020F48020086000BF606890B1FFF784FD21
:10147000054606E0FFF780FD401B642801D90320E4
:101480009EE7CC4808380068C0F340400028F1D0FF
:1014900011E0FFF771FD054606E0FFF76DFD401B0B
:1014A000642801D903208BE7C24808380068C0F3DC
:1014B00040400028F1D1207800F0020002285FD1DE
:1014C000BC48006800F00C0058B1BA48006800F051
:1014D0000C0008281CD1B748001F006800F48000E9
:1014E000B0B9B44808380068C0F3400020B1E068E3
:1014F000012801D0012063E7AE480838006820F0D9
:10150000F800216940EAC100AA490839086037E0BB
:10151000E06800B30120A8490860FFF72DFD0546EB
:1015200006E0FFF729FD401B022801D9032047E709
:10153000A04808380068C0F340000028F1D09D485A
:101540000838006820F0F800216940EAC100994994
:101550000839086014E0002097490860FFF70CFD87
:10156000054606E0FFF708FD401B022801D90320CD
:1015700026E7904808380068C0F340000028F1D101
:10158000207800F0080008282CD16069A8B101205B
:101590008A490860FFF7F0FC054606E0FFF7ECFC1F
:1015A000401B022801D903200AE782486C300068FA
:1015B000C0F340000028F1D014E000207F4908600B
:1015C000FFF7DAFC054606E0FFF7D6FC401B0228D1
:1015D00001D90320F4E677486C300068C0F340007E
:1015E0000028F1D1207800F00400042870D10027F1
:1015F00070483830006800F0805090B900BF00207B
:1016000000906C483830006840F0805069493831AB
:1016100008600846006800F08050009000BF00BFDE
:1016200001276748006800F48070B0B9644800681A
:1016300040F4807062490860FFF79EFC054606E0B2
:10164000FFF79AFC401B022801D90320B8E65C484A
:10165000006800F480700028F2D000BFA068012864
:1016600008D154486830006840F0010051496831A1
:1016700008601DE0A06805280DD14E48683000685C
:1016800040F004004B49683108600846006840F0AB
:10169000010008600CE047486830006820F0010055
:1016A0004449683108600846006820F0040008607A
:1016B00000BFA068A8B1FFF75FFC054609E0FFF78F
:1016C0005BFC401B41F28831884202D9032077E657
:1016D00026E0384868300068C0F340000028EED0AB
:1016E00013E0FFF749FC054608E0FFF745FC401B07
:1016F00041F28831884201D9032061E62D486830E3
:101700000068C0F340000028EFD1012F07D129481D
:101710003830006820F0805026493831086000BF1A
:10172000A069002845D02348006800F00C00082874
:101730005DD0A069022845D100201F490866FFF747
:101740001BFC054606E0FFF717FC401B022801D9E9
:10175000032035E6174808380068C0F340600028C9
:10176000F1D1D4E907010843616A40EA81110122FD
:10177000A06AC2EB500041EA00412C20005D41EA22
:1017800000600C49091F086001200B490866FFF73B
:10179000F3FB054606E0FFF7EFFB401B022801D9EB
:1017A00003200DE6034808380068C0F340600028B5
:1017B000F1D049E00838024000004742800E47421D
:1017C00000700040002021490866FFF7D5FB054660
:1017D00006E0FFF7D1FB401B022801D90320EFE50B
:1017E0001B480068C0F340600028F2D12CE0A069DB
:1017F000012800D1E4E51648001D0668A06901280B
:1018000020D006F48001E06981421BD106F03F013F
:10181000206A814216D147F6C0703040616AB0EB51
:10182000811F0FD106F440310122A06AC2EB5000A3
:10183000B1EB004F06D106F070612C20005DB1EBDA
:10184000006F01D00120BBE50020B9E50000474250
:101850000038024070B504462546681EB0F1807F0E
:1018600001D301200FE0681E4FF0E02148610F21F5
:101870004FF0FF3002F002FC00204FF0E0218861C1
:1018800007200861002070BD7047704730B50246E0
:101890000B4600BF92F83C00012801D1022030BD68
:1018A000012082F83C0000BF022082F83D00106851
:1018B00044681068816824F0700418680443106854
:1018C0004460184D1068A8421BD01068B0F1804FDA
:1018D00017D0154D1068A84213D0144D1068A842B7
:1018E0000FD0134D1068A8420BD0124D1068A842BB
:1018F00007D0114D1068A84203D0104D1068A842BF
:1019000005D121F0800158680143106881600120F1
:1019100082F83D0000BF002082F83C0000BF00BFFD
:10192000BDE7000000000140000400400008004046
:10193000000C00400004014000400140001800403D
:1019400010B504460CB9012010BD94F83D0028B92B
:10195000002084F83C00204600F026F8022084F89D
:101960003D00211D206801F001FF012084F84600A0
:1019700000BF84F83E0001213F2001554020015561
:101980004120015500BF00BF012084F842004320E0
:101990000155442001554520015500BF012084F820
:1019A0003D000020D0E7000038B504462068B0F1C3
:1019B000804F18D100BF002000901948006840F007
:1019C0000100174908600846006800F00100009017
:1019D00000BF00BF002211461C20FFF75BFB1C204C
:1019E000FFF744FB1BE00F492068884217D100BF76
:1019F000002000900A48006840F002000849086092
:101A00000846006800F00200009000BF00BF0022FE
:101A100011461D20FFF73EFB1D20FFF727FB38BDB9
:101A20004038024000040040014691F83D00012882
:101A300001D001207047022081F83D000868C0688D
:101A400040F001000B68D8601A4B086898421BD020
:101A50000868B0F1804F17D0174B0868984213D030
:101A6000164B086898420FD0154B086898420BD067
:101A7000144B0868984207D0134B0868984203D06B
:101A8000124B086898420CD10868806800F0070281
:101A9000062A0CD00868006840F001000B68186046
:101AA00005E00868006840F001000B68186000203D
:101AB000C0E70000000001400004004000080040B2
:101AC000000C0040000401400040014000180040AC
:101AD0002DE9F04104460D46002700BF94F83C0074
:101AE000012802D10220BDE8F081012084F83C00E9
:101AF00000BF022084F83D002068866826F0770643
:101B000026F47F46206886602868502833D00CDC95
:101B1000202850D004DC00284BD0102851D149E0B7
:101B2000302849D040284CD139E060282DD0702889
:101B300007D0B0F5805F03D0B0F5005F41D10DE074
:101B400041E0D5E902136A68206801F07FFE206851
:101B5000866846F077062068866034E0D5E902138F
:101B60006A68206801F072FE2068806840F4804056
:101B70002168886027E0EA686968206801F07AFED9
:101B80005021206801F06DFE1DE0EA686968206858
:101B900001F083FE6021206801F063FE13E0EA6833
:101BA0006968206801F066FE4021206801F059FE56
:101BB00009E000BF00BF00BF2968206801F051FEA6
:101BC00001E0012700BF00BF012084F83D0000BFF5
:101BD000002084F83C0000BF384684E7704770B5A9
:101BE00004462068C5682068066906F002000228DD
:101BF00019D105F00200022815D1401F21680861A3
:101C0000012020772068806900F0030018B1204689
:101C1000FFF7E4FF05E0204600F097F8204600F0CB
:101C200095F80020207706F00400042819D105F06B
:101C30000400042815D1C0432168086102202077E0
:101C40002068806900F4407018B12046FFF7C6FF95
:101C500005E0204600F079F8204600F077F80020F3
:101C6000207706F00800082819D105F00800082898
:101C700015D1C04321680861042020772068C0691D
:101C800000F0030018B12046FFF7A8FF05E020464A
:101C900000F05BF8204600F059F80020207706F0AD
:101CA0001000102819D105F01000102815D1C043DC
:101CB00021680861082020772068C06900F440701E
:101CC00018B12046FFF78AFF05E0204600F03DF8F6
:101CD000204600F03BF80020207706F0010048B1D4
:101CE00005F0010030B16FF0010021680861204665
:101CF00000F02EF806F08000802809D105F0800061
:101D0000802805D1C043216808612046FFF7BCFD4B
:101D100006F04000402809D105F04000402805D1D8
:101D2000C04321680861204600F01CF806F020003E
:101D3000202809D105F02000202805D1C0432168C2
:101D400008612046FFF7A1FD70BD70477047000095
:101D50000168B1F1804F02D10121014A1170704731
:101D60000400002070477047704700002DE9F84FCD
:101D70000446206805682068C668206847694FF0F7
:101D80000009CA4605F00F09B9F1000F0AD105F0A4
:101D9000200038B106F0200020B1204601F04FFEAF
:101DA000BDE8F88FB9F1000F7CD007F0010018B939
:101DB00006F49070002875D005F0010030B106F4EB
:101DC000807018B1606C40F00100606405F00400A0
:101DD00030B107F0010018B1606C40F0020060649F
:101DE00005F0020030B107F0010018B1606C40F05E
:101DF0000400606405F0080048B106F0200010B946
:101E000007F0010018B1606C40F008006064606C7D
:101E1000002846D005F0200028B106F0200010B1BF
:101E2000204601F00CFE20684069C0F3801A606C07
:101E300000F0080010B9BAF1000F2DD0204601F0D3
:101E4000B8FD2068406900F04000402820D100BF64
:101E500000BF2168143151E8001F21F040002168C3
:101E6000143141E80002002AF3D100BFE06B50B109
:101E70007F48E16B0865E06BFEF74EFF88B1E06BD1
:101E8000016D88470DE02046FFF76EFF09E009E08D
:101E90002046FFF769FF04E02046FFF765FF0020BA
:101EA00060647DE7206B012878D105F010000028E0
:101EB00074D006F010000028FAD000BF0020009077
:101EC00020680068009020684068009000BF00BF54
:101ED0002068406900F04000402870D1E06B006845
:101EE00040681FFA80F8B8F1000F58D0A08D404527
:101EF00055DDA4F82E80E06BC069B0F5807F43D03B
:101F000000BF00BF21680C3151E8001F21F4807030
:101F100021680C3141E80002002AF3D100BF00BF64
:101F200000BF2168143151E8001F21F00100216831
:101F3000143141E80002002AF3D100BF00BF00BF06
:101F40002168143151E8001F21F04000216814314C
:101F500041E80002002AF3D100BF202084F84200AB
:101F60000020206300BF00BF21680C3151E8001F32
:101F700021F0100021680C3141E80002002AF3D161
:101F800000BFE06BFEF772FE02206063A08DE28D61
:101F9000801A81B22046FFF7E6FE0EE052E0A08DE7
:101FA00040450AD1E06BC069B0F5807F05D10220C1
:101FB0006063A18D2046FFF7D6FEF1E6FFE7A08D16
:101FC000E18D401A1FFA80F8E08DD0B3B8F1000F10
:101FD00037D000BF00BF21680C3151E8001F21F449
:101FE000907021680C3141E80002002AF3D100BF53
:101FF00000BF00BF2168143151E8001F21F001002B
:102000002168143141E80002002AF3D100BF2020EA
:1020100084F842000020206300BF00BF21680C311B
:1020200051E8001F21F0100021680C3141E8000246
:10203000002AF3D100BF0220606341462046FFF72B
:1020400092FEADE605F0800030B106F0800018B1D8
:10205000204601F0A9FEA3E605F0400030B106F0ED
:10206000400018B1204601F0DAFC99E600BF97E67F
:10207000A139000810B504460CB9012010BDA069B3
:1020800000B100E000BF94F8410028B9002084F8B6
:102090004000204600F02AF8242084F841002068FF
:1020A000C06820F400502168C860204601F046FD59
:1020B0002068006920F49040216808612068406928
:1020C00020F02A00216848612068C06840F4005070
:1020D0002168C86000206064202084F8410084F8F2
:1020E00042000020606300BFC8E7000010B586B062
:1020F0000446142101A8FEF79BF81F492068884276
:1021000038D100BF002000901C48006840F010004B
:102110001A4908600846006800F01000009000BFEF
:1021200000BF00BF0020009014481438006840F041
:1021300001001249143908600846006800F00100E7
:10214000009000BF00BF4FF4C060019002200290D9
:1021500000200390032004900720059001A908485F
:10216000FEF702FE002211462520FEF793FF2520F0
:10217000FEF77CFF06B010BD00100140443802405D
:102180000000024070B504460D46164694F8420021
:1021900020280BD105B10EB9012070BD00202063AD
:1021A00032462946204601F0DFFDF6E70220F4E73B
:1021B00010B5044606492068884208D105480078D1
:1021C00001F030F8012203490348FFF7DBFF10BD9F
:1021D00000100140940000202C0100202DE9F84F50
:1021E00004460E46174699464FF0000A94F84100FF
:1021F000202850D106B117B90120BDE8F88F002082
:102200006064212084F84100FEF7B6FE8246A78470
:10221000E784A068B0F5805F04D1206910B900257B
:10222000B04602E035464FF000081EE0534600225B
:1022300080212046CDF8009001F0E6FD20B120205D
:1022400084F841000320D8E745B9B8F80000C0F38E
:1022500008002168486008F1020803E02878216836
:1022600048606D1CE08C401EE084E08C0028DDD1CD
:102270005346002240212046CDF8009001F0C4FDD5
:1022800020B1202084F841000320B6E7202084F804
:1022900041000020B1E70220AFE7704700BFFEE732
:1022A00010B5FEF75FFBFEF77BFBFEF771FA00F05F
:1022B00041F904460B2C05D1012003490870FEF7B3
:1022C000ADF810BD00BFFCE70900002010B54FF0CD
:1022D000FF3001F071F900200149087010BD0000C5
:1022E0006200002010B5012001F066F90248007874
:1022F000401C0149087010BD6400002000B587B083
:10230000142102A8FDF794FF00BF0020019042486D
:10231000006840F08000404908600846006800F00E
:102320008000019000BF00BF00BF00200190084660
:10233000006840F0020008600846006800F00200F3
:10234000019000BF00BF00BF002001900846006858
:1023500040F0080008600846006800F0080001909E
:1023600000BF00BF00BF002001900846006840F099
:10237000010008600846006800F00100019000BFFD
:1023800000BF00224FF473412448FEF7EFFD002206
:1023900044F20F012248FEF7E9FD4FF4704002902D
:1023A00001200390002004900120059002A91B4801
:1023B000FEF7DAFC4FF480400290012003900020E9
:1023C0000490059002A91648FEF7CEFC0F2002905B
:1023D00001200390002004900120059002A91048DC
:1023E000FEF7C2FCF0200290002003900120049030
:1023F00002A90B48FEF7B8FC4FF440700290112080
:102400000390002004900220059002A90348FEF7E3
:10241000ABFC07B000BD00003038024000040240B1
:10242000000C024000B587B0002003900490059096
:102430000690019002904FF080401449086042F2EB
:10244000CF00486000211148816044F61F61C160DF
:10245000002101618161FFF773FA08B1FEF7D6FB35
:102460004FF48050039003A90848FFF731FB08B1EF
:10247000FEF7CCFB00200190029001A90348FFF772
:1024800005FA08B1FEF7C2FB07B000BD9C000020B2
:1024900000B587B00020039004900590069001904D
:1024A0000290144814490860002048600021124836
:1024B00081604FF6FF71C160002101618161FFF70A
:1024C0003FFA08B1FEF7A2FB4FF48050039003A936
:1024D0000948FFF7FDFA08B1FEF798FB00200190CC
:1024E000029001A90448FFF7D1F908B1FEF78EFB6D
:1024F00007B000BD00040040E400002010B50B4808
:102500000B4908604FF4E1304860002108488160C1
:10251000C16001610C21416100218161C161FFF74E
:10252000A9FD08B1FEF772FB10BD000000100140CC
:102530002C01002070B500F02BF80446FEF71CFDBE
:10254000054610480078844205D00E4804700E48B5
:102550000560002070BD0C480068281A14280FD3AD
:1025600044B10A48007828B9084804700548047046
:102570002046EFE714B90020044908700020E9E77D
:102580000020E7E71C00002020000020240000209D
:1025900010B5002400F07EF8002201213C48FEF72F
:1025A000E5FC80213A48FEF7D9FC00B9042440211B
:1025B0003748FEF7D3FC00B9082420213448FEF741
:1025C000CDFC00B90C2410213148FEF7C7FC00B93E
:1025D000102400F05FF8002202212D48FEF7C6FC0F
:1025E00080212B48FEF7BAFC00B90324402128487B
:1025F000FEF7B4FC00B9072420212548FEF7AEFC05
:1026000000B90B2410212248FEF7A8FC00B90F24C2
:1026100000F040F8002204211D48FEF7A7FC8021AD
:102620001B48FEF79BFC00B9022440211848FEF726
:1026300095FC00B9062420211548FEF78FFC00B94F
:102640000A2410211248FEF789FC00B90E2400F07C
:1026500021F8002208210E48FEF788FC80210C4852
:10266000FEF77CFC00B9012440210948FEF776FC06
:1026700000B9052420210648FEF770FC00B90924A2
:1026800010210348FEF76AFC00B90D24204610BD56
:10269000000C024010B5012211460948FEF766FC05
:1026A000012202210648FEF761FC012204210448B0
:1026B000FEF75CFC012208210148FEF757FC10BD23
:1026C000000C024000BFFEE700BFFEE7002004E070
:1026D0000021054A1154411CC8B20828F8DB00202B
:1026E00002490870704700004E0000205C00002086
:1026F00000B500F0ABFA002005E00649095C064A87
:102700001154411CC8B2054909788842F5DBFFF72E
:10271000DDFF00BD4E0000202600002056000020F6
:1027200010B5FEF729FC0149086010BD68000020C3
:1027300070B500240EE00021204600F0F3F80025DB
:1027400004E0002000F080F9681CC5B2802DF8DBA1
:10275000601CC4B2082CEEDB70BD000010B5012275
:1027600011020448FEF702FC012251020148FEF763
:10277000FDFB10BD0004024070B5054600241FE0BB
:1027800080202041284008B1012000E000200246BE
:102790004FF400711448FEF7E9FB012211021248C0
:1027A000FEF7E4FB0520FDF7F5FD00224FF48071F4
:1027B0000D48FEF7DBFB0520FDF7ECFD601CC4B205
:1027C000082CDDDB012211020748FEF7CFFB0520B4
:1027D000FDF7E0FD00224FF480710348FEF7C6FBD1
:1027E0000520FDF7D7FD70BD0004024010B50122A1
:1027F00051020D48FEF7BAFB012211020A48FEF70A
:10280000B5FB00224FF400710748FEF7AFFB05202F
:10281000FDF7C0FD00224FF480710348FEF7A6FBD0
:102820000520FDF7B7FD10BD0004024010B50022E1
:102830004FF400710848FEF799FB01221102064887
:10284000FEF794FB012251020348FEF78FFB05209F
:10285000FDF7A0FD10BD00000004024070B500248B
:1028600006E0002500E06D1CB5F57A7FFBD3641C03
:10287000B4F57A7FF5D31420FEF762FAFFF76EFF06
:10288000AE2000F0D1F8D52000F0CEF8802000F086
:10289000CBF8A82000F0C8F83F2000F0C5F8D320FE
:1028A00000F0C2F8002000F0BFF8402000F0BCF8B3
:1028B000A12000F0B9F8C82000F0B6F8DA2000F046
:1028C000B3F8122000F0B0F8812000F0ADF8CF206E
:1028D00000F0AAF8D92000F0A7F8F12000F0A4F841
:1028E000DB2000F0A1F8302000F09EF8A42000F0DA
:1028F0009BF8A62000F098F88D2000F095F81420A1
:1029000000F092F8AF2000F08FF8FFF711FF70BDD4
:1029100010B50246012000E050430B1EA1F1010159
:10292000FAD110BD70B505460C4645F0B00000F078
:102930007BF8102141EA141000F076F804F00F0043
:1029400000F072F870BD00002DE9F04105460E461A
:102950001746721ED206110E6A1E5206100EFFF79F
:10296000E1FF002409E0A7F12001134A02EB011165
:10297000085D00F069F8601CC4B2082CF3DB721E1D
:10298000D206110E6A1E012303EB4202D0B2FFF7FA
:10299000C9FF00240BE0A7F12001074A02EB011256
:1029A00004F10801505C00F04FF8601CC4B2082C20
:1029B000F1DBBDE8F0810000604400082DE9F0473C
:1029C00080460E4617461D46002415E0281B411E72
:1029D0000A20FFF79DFFB7FBF0F00A21B0FBF1F2F0
:1029E00001FB120000F130093019C1B24A464046DD
:1029F000FFF7AAFF601CC4B2AC42E7DBBDE8F0877A
:102A00002DE9F04107460E461546002407E02A5DF1
:102A10003019C1B23846FFF797FF601CC4B2285D79
:102A20000028F4D1BDE8F08110B50446FFF7DEFEC2
:102A30007820FFF7A1FE0020FFF79EFE2046FFF75B
:102A40009BFEFFF7F3FE10BD10B50446FFF7CEFE68
:102A50007820FFF791FE4020FFF78EFE2046FFF71B
:102A60008BFEFFF7E3FE10BD10B5FFF763FD0446D4
:102A7000A4F10C0005282FD2DFE800F0030B11179A
:102A8000250000201549087015490870FDF7A6FFBC
:102A900022E0052012490870FDF71CFE1CE003200F
:102AA0000F490870FDF78EFC16E000200D490870F4
:102AB0000D49087001200D4908700420084908706C
:102AC000FEF772F808E0012005490870002003496C
:102AD0000870FDF7A3FC00BF00BF10BD620000201E
:102AE000090000200500002006000020080000204A
:102AF00006480078012801D1032070470348007878
:102B0000032801DB0420F8E70120F6E7630000203A
:102B100010B500F015F90446012C06D0062C10D093
:102B2000072C05D0082C12D108E0FDF7FFFF0EE0BE
:102B3000022008490870FDF79FFF08E0FDF7CAFD75
:102B400010BD022003490870FDF796FF00BF00BFCB
:102B500000BFF5E70900002010B5FFF7EBFC364990
:102B6000087008460078112863D2DFE800F0620997
:102B70000A0B0C0D0E0F1011263A626250626000B3
:102B800000BF00BF00BF00BF00BF00BF00BF00BF4D
:102B90002A48007808280BDA274801782748027865
:102BA0000078401C254B187025488154012010BD29
:102BB000FFF78CFD4FF0FF30F9E720480078082838
:102BC0000ADA00211D4802780078401C1B4B18705F
:102BD0001B4881540120EAE7FFF778FD4FF0FF30F2
:102BE000E5E716480078042804DAFFF76FFD4FF098
:102BF000FF30DCE71148007812490870FFF778FDD4
:102C000000F030F80020104908700520CFE70B488D
:102C10000078002809DD09480078401E074908703F
:102C200000200749054A127888540120BFE7062092
:102C3000BDE700BFBBE700005A0000205C00002099
:102C40004E0000205600002062000020002004E01A
:102C50000021034A1154411CC8B20828F8DB704710
:102C6000260000202D48007820B101281DD0022820
:102C700051D135E0002004E00021294A1154411CC3
:102C8000C8B20828F8DB002005E02649095C244A80
:102C90001154411CC8B2244909788842F5DB224806
:102CA00000782249087001207047002004E00021CC
:102CB0001F4A1154411CC8B20828F8DB002005E067
:102CC0001849095C1A4A1154411CC8B216490978BE
:102CD0008842F5DB14480078164908700120E3E7C4
:102CE000002004E00021144A1154411CC8B20828F5
:102CF000F8DB002005E00B49095C0F4A1154411C28
:102D0000C8B2094909788842F5DB074800780B49C1
:102D100008700120C8E70020C6E700006500002019
:102D20002E00002026000020560000205700002022
:102D300036000020580000203E00002059000020EE
:102D400010B5FFF7F7FB33490870084600780B28E9
:102D500006D00D2806D00E2806D0102857D154E0F2
:102D6000072010BD0820FCE72B480078401C2A49AA
:102D7000087008460078022801DD00200870264807
:102D8000007820B1012816D002283CD127E0FFF7B7
:102D90005DFF002005E02149095C214A1154411CD6
:102DA000C8B2204909788842F5DB1E4800781E49E0
:102DB00008700120D5E7FFF749FF002005E01B4917
:102DC000095C174A1154411CC8B219490978884254
:102DD000F5DB17480078144908700120C1E7FFF7B8
:102DE00035FF002005E01349095C0D4A1154411CD0
:102DF000C8B2114909788842F5DB0F4800780A49C2
:102E000008700120ADE70020ABE70620A9E700200D
:102E1000A7E700005A000020650000202E000020D7
:102E20002600002057000020560000203600002019
:102E3000580000203E0000205900002010B5FFF788
:102E400079FB624908700846007811286FD2DFE8E4
:102E500000F0BB090A0B0C0D0E0F1011263A969EBE
:102E6000A9BBB90000BF00BF00BF00BF00BF00BFCB
:102E700000BF00BF5648007808280BDA5348017895
:102E8000534802780078401C514B187051488154C7
:102E9000012010BD01F040F84FF0FF30F9E74C4839
:102EA000007808280ADA0021494802780078401C96
:102EB000474B1870474881540120EAE701F02CF88D
:102EC0004FF0FF30E5E744480078042803DB424830
:102ED000007808280CDD01F01FF800203F49087039
:102EE0003F480078401C3E4908704FF0FF30D0E763
:102EF00000F0DAFF012802D06FF00200C9E700F00D
:102F000017FD012801D00020C3E73148007832497D
:102F10000978884209D000F0FFFF31480078401C52
:102F20002F4908706FF00100B3E7002312E04BE077
:102F30002848C05C2B49C95C884209D000F0ECFFEE
:102F400027480078401C264908706FF00100A0E770
:102F5000581CC3B2204800788342E9DB00F0DCFF54
:102F600001201E49087000201D4908701E48007885
:102F7000401C1D490870FDF7F5FC022089E7174841
:102F80000078012801D0002083E7012081E7134861
:102F90000078012801D000207BE700200F4908704D
:102FA000012076E70A480078002809DD0848007803
:102FB000401E0749087000210648054A12788154CE
:102FC000012066E7062064E700BF62E75A000020A0
:102FD0005B00002046000020560000206200002018
:102FE00063000020260000206400002070470000DD
:102FF000F0B50446DDE9056514B10BB102B115B9B0
:103000006FF00300F0BD14480088814203DB1348D1
:103010000088864202DA4FF0FF30F3E7002004E038
:103020000F4F3F5C2754471CB8B20B4F3F88B84244
:10303000F6DB002004E00B4F3F5C1F54471CB8B286
:10304000064F3F88B842F6DB0348008810800348EB
:10305000008828800120D5E75E0000206000002065
:1030600074010020740200207047000010B5012296
:1030700002490348FFF786F810BD000094000020C5
:103080002C01002010B507480078012805D1FFF772
:103090001DF905A000F0DAFF02E008A000F0D6FF5D
:1030A00010BD0000620000205B4C6F636B5D4C6FD5
:1030B000636B20436C6F7365000000005B4C6F63B3
:1030C0006B5D416C726561647920436C6F73650060
:1030D00010B50648007828B9FFF704F904A000F0FD
:1030E000B5FF02E006A000F0B1FF10BD62000020B5
:1030F0005B4C6F636B5D4C6F636B204F70656E0054
:103100005B4C6F636B5D416C7265616479204F70DD
:10311000656E000010B52648007800B910BD00208B
:103120002349087023A12548FDF78DF810B900F058
:103130009BF93AE022A12148FDF785F810B900F08B
:103140009DF832E01FA11D48FDF77DF810B9FFF78B
:10315000BFFF2AE01DA11948FDF775F810B9FFF768
:1031600091FF22E01BA11548FDF76DF810B900F0A2
:10317000CDF91AE019A11148FDF765F810B900F072
:10318000DBF912E017A10D48FDF75DF810B900F06A
:10319000ADF80AE015A10948FDF755F810B900F09F
:1031A00091F802E013A000F051FF00BFB6E7000065
:1031B000930000205354415455530000D403002081
:1031C000444854004F50454E00000000434C4F53BC
:1031D0004500000053554343455353005741524E59
:1031E000494E47005245434F5244000048454C5019
:1031F000000000005B4572725D496E7661696C6427
:1032000020436F6D6D616E642053656E6420484588
:103210004C5020546F2047657420436F6D6D616E74
:103220006473000012490978012900D170470A2807
:1032300001D00D280ED10F490978002916DD012192
:103240000B4A117000210C4A0A4B1B78D154094AD1
:1032500011700BE0074909783F2907DA05490A7818
:103260000978491C034B19700349885400BFDDE7F6
:103270009300002095000020D403002008B50648E4
:1032800000780090054803780548027805480178E1
:1032900005A000F0DBFE08BD0300002002000020B6
:1032A00001000020000000205B4448545D54656D1F
:1032B000703A25642E25642048756D693A25642E80
:1032C0002564000010B502A000F0C0FE10BD000093
:1032D0005B48454C505D436F6D6D616E64733A2081
:1032E0005354415455532C20000000002DE9F04365
:1032F000D5B04FF4807115A8FCF79AFF402105A8BE
:10330000FCF796FF00200490039003A8402105AB32
:1033100004AACDE90010890015A8FFF769FE01286D
:1033200063D1002400250026BDF8100010B1BDF8BF
:103330000C0040B931A000F089FE35A000F086FEF7
:1033400055B0BDE8F08336A000F080FE44E028468A
:10335000691C8DB205A90F5C2846691C8DB205A9B0
:1033600011F800802846691C8DB205A911F800905B
:10337000BDF80C00854205DA05A8405D5A2801D148
:10338000681C85B2701CC0B20646014643463A46E8
:1033900026A0CDF8009000F059FE07E02046621C00
:1033A00094B215AA115C29A000F050FEBDF81000DF
:1033B000844203DA15A8005D4128EFD1BDF8100062
:1033C000844205DA15A8005D412801D1601C84B251
:1033D0001FA000F03BFE00BFBDF81000844203DADE
:1033E000BDF80C008542B2DB02E01AA000F02EFE10
:1033F00007A000F02BFE00BFA2E700005B45727241
:103400006F725D4E6F205265636F7264730D0A00B8
:103410005265636F72647320454E440D0A000000CC
:103420005B5265636F7264735D0D0A0052656325BC
:10343000642054696D653A253032643A253032642F
:103440003A25303264205077643A00002564000049
:103450000D0A00005B4572726F725D5265616420F7
:103460004572726F720D0A001FB50D4800780D4944
:1034700009780D4A12780D4B1B78CDE90032CDE961
:1034800002100B48007808B10AA000E00BA001462A
:103490000C4803780C4802780CA000F0D7FD1FBD43
:1034A00063000020640000200300002002000020D0
:1034B000620000204F70656E00000000436C6F7367
:1034C0006500000001000020000000205B537461D3
:1034D0007475735D4C6F636B3A25732054656D7022
:1034E0003A25642E25642048756D693A25642E2599
:1034F0006420556E6C6F636B636E743A256420575D
:1035000061726E696E67733A2564000010B50348F6
:10351000017803A000F09AFD10BD000064000020B7
:103520005B537563636573735D556E6C6F636B633B
:103530006E743A256400000010B50348017803A0BA
:1035400000F084FD10BD0000630000205B57617235
:103550006E696E675D5761726E696E67733A256456
:10356000000000002DE9F04106460C4600271DE052
:10357000012C0CD1002507E0284600F025F8032097
:10358000FDF7DEFB681CC5B2082DF5DB0DE0601C05
:1035900058B9072507E0E8B200F016F80320FDF758
:1035A000CFFB681E45B2002DF5DA7F1CB742DFD392
:1035B00000F048F8BDE8F08110B5044621468020AF
:1035C000FFF7D0FF10BD000010B504461B4810F8EF
:1035D000240008B1012000E0002002464FF4805191
:1035E0001748FDF7C3FC154800EB8400407808B18C
:1035F000012000E0002002464FF400511048FDF782
:10360000B5FC0E4800EB8400807808B1012000E092
:10361000002002464FF480410948FDF7A7FC074807
:1036200000EB8400C07808B1012000E000200246D1
:103630004FF400410248FDF799FC10BD70000020D6
:103640000004024010B500224FF480510A48FDF7F3
:103650008DFC00224FF400510748FDF787FC002243
:103660004FF480410448FDF781FC00224FF40041F3
:103670000148FDF77BFC10BD0004024010B5FDF7CA
:1036800081FC10BD00B593B0302107A8FCF7D0FD38
:10369000142102A8FCF7CCFD00BF002001902448B3
:1036A000006840F08050224908600846006800F039
:1036B0008050019000BF00BF00BF002001901D4856
:1036C000006840F480401B4908600846006800F428
:1036D0008040019000BF00BF0120079000040890C7
:1036E00002200D9041050E9104210F91A821109107
:1036F000022111910421129107A8FDF75DFE08B186
:10370000FDF784FA0F20029002200390002004901D
:103710004FF4A05005904FF480500690052102A868
:10372000FDF70AFD08B1FDF771FA13B000BD000006
:1037300040380240007000400348006840F47000C8
:10374000014908607047000088ED00E010B50248AC
:10375000FEF745FA10BD00009C00002010B502489D
:10376000FEF73DFA10BD0000E400002010B502682D
:103770002B4B98420ED0B0F1804F0BD0294B984282
:1037800008D0294B984205D0284B984202D0284BAC
:10379000984203D122F070024B681A43204B9842A2
:1037A00020D0B0F1804F1DD01E4B98421AD01E4B36
:1037B000984217D01D4B984214D01D4B984211D0FF
:1037C0001C4B98420ED01C4B98420BD01B4B98427E
:1037D00008D01B4B984205D01A4B984202D01A4B86
:1037E000984203D122F44072CB681A4322F080033E
:1037F0004C6943EA04028B68C3620B688362084B1E
:10380000984202D00A4B984201D10B6903630368C6
:1038100043F00403036001234361026010BD000014
:10382000000001400004004000080040000C00407F
:1038300000040140004001400044014000480140B4
:1038400000180040001C00400020004030B50C462D
:10385000816821F47F4142EA0325254329438160A1
:1038600030BD0A46816821F0700142F00703194318
:103870008160704730B50B461446026A056A25F030
:1038800001050562816921F0F00141EA041122F08D
:103890000A021A438161026230BD30B50B461446FC
:1038A000026A056A25F010050562816921F47041FC
:1038B00041EA043122F0A00242EA0312816102626D
:1038C00030BD000010B5FCF74FFD0748FEF7ACF81F
:1038D000FEF726FFFFF7CAFBFEF7C0FF1420FDF737
:1038E0002FFAFDF77BF810BD9C00002010B5FFF704
:1038F00011FC0E480078062816D2DFE800F0030617
:10390000090C0F12FEF7CCFC0EE000F017FB0BE0E9
:10391000FFF7AAF808E0FCF7EDFC05E000F048FB33
:1039200002E0FFF7F5F800BF00BF10BD090000205E
:103930000EB519480088001D402801DD00200EBD8D
:103940006A4601A902A8FDF765F99DF8081012481A
:1039500002880088401C104B1880104881549DF844
:103960000420184601880088401C18800B484254E7
:103970009DF80010184602880088401C18800748EF
:1039800081545A22184601880088401C1880034838
:1039900042540120D3E700006000002074020020A0
:1039A00070B50446A56B0020E8852846FEF7DCF9D3
:1039B00070BD00BF00BF02680C3252E8002F22F435
:1039C000907102680C3242E80013002BF3D100BF63
:1039D00000BF00BF0268143252E8002F22F001013C
:1039E0000268143242E80013002BF3D100BF016BD0
:1039F00001290ED100BF00BF02680C3252E8002F2F
:103A000022F0100102680C3242E80013002BF3D1BF
:103A100000BF202180F8421000210163704710B5DB
:103A200004462068C06820F040002168C86020205B
:103A300084F841002046FEF730FC002010BDF8B5A8
:103A400004460025002694F84200222873D1A0687D
:103A5000B0F5805F0BD1206948B9A66A206840683C
:103A6000C0F308003080A06A801CA06214E0A56A40
:103A7000A068B0F5805F03D0A06828B9206918B9A4
:103A800020684068287004E02068406800F07F00EB
:103A90002870A06A401CA062E08D401E80B2E085C4
:103AA000002846D12068C06820F020002168C86046
:103AB0002068C06820F480702168C8602068406970
:103AC00020F0010021684861202084F84200002095
:103AD0006063206B012826D10020206300BF00BF57
:103AE00021680C3151E8001F21F0100021680C31D1
:103AF00041E80002002AF3D100BF2068006800F00E
:103B0000100010280AD100BF002000902068006833
:103B1000009020684068009000BF00BFA18D204643
:103B2000FEF721F902E02046FEF742FB0020F8BD37
:103B300001E00020FBE70220F9E700002DE9F84F43
:103B400004462068006920F44050E1680843216879
:103B500008612169A068084361690843E169084375
:103B600000902068C06849F20C61884300990843BE
:103B70002168C8602068406920F44070A16908434A
:103B80002168486176492068884203D075492068D9
:103B9000884203D1FDF7A8FB814602E0FDF794FBC4
:103BA0008146E069B0F5004F6CD102206168A0FB4E
:103BB000015003461920A9FB007001462A463846E9
:103BC000FCF7FEFA6421B0FBF1F04FEA001A022084
:103BD0006168A0FB01510B461920A9FB00712A4620
:103BE0003846FCF7EDFA834602206168A0FB0150DD
:103BF00003461920A9FB00712A463846FCF7E0FA73
:103C00006421B0FBF1F000EBC00101EB0010ABEB65
:103C10008000322101EBC0006421B0FBF1F000F024
:103C2000F8000AEB400A02206168A0FB015003463D
:103C30001920A9FB007001462A463846FCF7C0FA55
:103C4000834602206168A0FB015003461920A9FBAE
:103C500000712A463846FCF7B3FA6421B0FBF1F054
:103C600000EBC00101EB0010ABEB8000322101EB57
:103C7000C0006421B0FBF1F000F00700504421685F
:103C800088606AE004206168A0FB015003461920A7
:103C9000A9FB007001462A463846FCF791FA824695
:103CA00004206168A0FB015003461920A9FB0070A5
:103CB00001462A463846FCF783FA6421B0FBF1F04E
:103CC00000EBC00101EB0010AAEB8000322101EBF8
:103CD00000106421B0FBF1F000F0F00A04206168EC
:103CE000A0FB017003461920A9FB00513A46284663
:103CF000FCF766FA6421B0FBF1F00AEB001A04202D
:103D00006168A0FB01510B461920A9FB00712A46EE
:103D10003846FCF755FA834604206168A0FB015041
:103D200003461920A9FB007001462A463846FCF7D5
:103D300047FA6421B0FBF1F000EBC00101EB001089
:103D4000ABEB8000322101EB00106421B0FBF1F0FD
:103D500000F00F00504421688860BDE8F88F000033
:103D6000001001400014014010B5034699629A8585
:103D7000DA8500205864222083F84200186928B1AF
:103D80001868C06840F480701C68E060186840697A
:103D900040F001001C6860611868C06840F02000B5
:103DA0001C68E060002010BD014691F84100212808
:103DB00028D18868B0F5805F0BD1086948B90A6AD4
:103DC0001088C0F308000B685860086A801C0862FD
:103DD00005E00B6A581C086218780B685860C88C9C
:103DE000401E80B2C88458B90868C06820F08000BE
:103DF0000B68D8600868C06840F040000B68D86065
:103E0000002070470220FCE72DE9F84304460D46E8
:103E100017469846089E31E0701C70B3FDF7ACF869
:103E2000A0EB0800B04200D816B90320BDE8F88323
:103E30002068C06800F00400F8B1802D1ED0402D2D
:103E40001CD020680068C0F3C000B0B100BF0020E3
:103E5000009020680068009020684068009000BFD3
:103E600000BF2046FFF7A5FD0820606400BF0020CA
:103E700084F8400000BF0120D8E7FFE72068006811
:103E80002840A84201D1012000E00020B842C3D060
:103E90000020CBE710B50248FDF768FF10BD000019
:103EA0002C01002000BFFEE710B51748007808B9C4
:103EB000002010BD15480088134909780844401CAB
:103EC000B0F5807F02DD4FF0FF30F2E700200BE01D
:103ED0000F490A5C0D490B880988491C0B4C21804D
:103EE0000C49CA54411CC8B2074909788842EFDB23
:103EF0004122064801880088401C044B1880054870
:103F000042540120D5E700005B0000205E00002045
:103F10004600002074010020002004E00021054A32
:103F20001154411CC8B20828F8DB0020024908706F
:103F300070470000460000205B00002010B5FEF72F
:103F40007DFF0446E01C0A282BD2DFE800F0251E86
:103F5000192A05082A2A2A13FCF7D4FC21E001209B
:103F600011490870FCF774FD022010490870FCF735
:103F700083FD10BD00200D490870FCF72FFD10E0F7
:103F8000FCF7DEFCFCF74AFA0BE0FCF71FFEFCF73F
:103F9000BBFDFCF743FA04E0FCF748FDFCF73EFAF2
:103FA00000BF00BF00BFE4E762000020090000205E
:103FB00070B5FCF75FFA0546FCF7FEFBFEF7BAFAB0
:103FC00004460B2C04D00C2C17D0102C31D127E038
:103FD0001948007801280FDB18480078164909783D
:103FE000884209DA15480078401C144908700020FE
:103FF00013490870FCF7E0FB1BE00F48007801282C
:104000000DDB0E480078012809DD0C480078401EC1
:104010000A49087000200A490870FCF7CDFB08E047
:10402000002008490870022007490870FCF724FDA9
:1040300000BF00BF70BD0000070000200800002086
:104040000600002005000020090000200FB4054BE9
:1040500010B503A9044A029800F034F810BC5DF8CA
:1040600014FB000009440008980000200248006882
:10407000C0F30220704700000CED00E010B50028EE
:1040800004DB0A07130E054A135406E00A07140E50
:10409000034A00F00F031B1FD45410BD00E400E0DE
:1040A00018ED00E002E008C8121F08C1002AFAD18A
:1040B00070477047002001E001C1121F002AFBD1A8
:1040C000704700002DE9FF4F8BB08846054600265B
:1040D00006E025280BD0DDE90D1290476D1C761CFB
:1040E00028780028F5D10FB03046BDE8F08F0024C5
:1040F000A146A2460122AE4900E0044315F8013F63
:10410000203B02FA03F00842F7D128782A2810D081
:104110006FF02F022878A0F13001092915D809EB9A
:10412000890102EB410144F0020400EB01096D1C1E
:10413000F0E758F8041B5FEA010903D544F4005482
:10414000C9F1000944F002046D1C28782E2817D10B
:1041500015F8010F44F004042A280ED06FF02F0246
:104160002878A0F1300109290AD80AEB8A0102EB6C
:10417000410100EB010A6D1CF2E758F804AB6D1C1D
:1041800028786C280FD006DC4C2817D068280DD072
:104190006A2814D104E0742810D07A280FD10DE0D9
:1041A00044F400140AE044F4801401E044F44014A0
:1041B0006978814202D104F580146D1C6D1C287849
:1041C000692865D006DC00288DD0632827D06428B4
:1041D00006D15DE06E2808D073282AD0752877D0E4
:1041E000DDE90D129047761CE0E0C4F3025002288E
:1041F00009D003280DD0D8F8001004280DD00E6087
:1042000008F10408D2E0D8F80010F217C1E9006202
:10421000F6E7D8F800100E80F2E70E70F0E718F815
:10422000041B8DF8001000208DF80100EB460120E2
:1042300003E058F804BB4FF0FF3061074FF0000770
:1042400001D40AE07F1C57450DDA8742FADB1BF8E0
:1042500007100029F6D106E07F1C8742FCDB1BF823
:1042600007100029F8D1DDE90D23A9EB07008146ED
:10427000214600F0B1F83044C61904E0DDE90D1222
:104280001BF8010B90477F1EF8D22146484688E074
:1042900058F8040BC4F302514FF00A0B032900D164
:1042A00000B2042900D140B2002802DA40422D2198
:1042B00002E0210505D52B218DF82410012104E011
:1042C00006E0E10710D02021F6E708AF089113E0DF
:1042D00058F8040BC4F302514FF00A0B032900D124
:1042E00080B2042900D1C0B20021EEE75946FBF7A5
:1042F000B8FF303107F8011D0028F7D1ADEB0700FA
:1043000000F1200B600702D524F4803401E04FF067
:10431000010ADA4502DDAAEB0B0000E0002082462C
:1043200000EB0B0108980144A9EB01000A90E0039F
:1043300006D4DDE90D2321460A9800F04DF8064425
:104340004FF0000908E009A911F80900DDE90D1294
:10435000904709F10109761C08998945F3DBE003D0
:104360000CD5DDE90D2321460A9800F035F8064406
:1043700004E0DDE90D1230209047761CBAF100010F
:10438000AAF1010AF5DC05E0DDE90D1217F8010BD1
:104390009047761CBBF10001ABF1010BF4DC0A98ED
:1043A0002146DDE90D2300F005F806446D1C97E673
:1043B000092801002DE9F041044600251E46174654
:1043C000880404D405E039462020B0476D1C641EE3
:1043D000F9D52846BDE8F0812DE9F04104460025D5
:1043E0001E469046C80301D5302700E020278804E8
:1043F00004D505E041463846B0476D1C641EF9D52A
:104400002846BDE8F081000013B50C464FF0FF339D
:10441000012269460248FDF7E1FE00981CBD00003C
:104420002C010020FCF7BAFDFFF72CF9FDF766FF21
:10443000FEF72EF8FEF762F8FDF7F4FFFFF742FAF9
:1044400001E0FFF753FAFCE7000000000000000065
:10445000010203040607080900000000010203042A
:10446000000000000000000000000000000000004C
:10447000000000F8000000000000003330000000E1
:1044800000100C06100C06000000000000000000E8
:1044900040C07840C0784000043F04043F0404005A
:1044A000007088FC08300000001820FF211E00006A
:1044B000F008F000E018000000211C031E211E007F
:1044C00000F00888700000001E2123241927211005
:1044D00010160E00000000000000000000000000A8
:1044E000000000E01804020000000007182040004F
:1044F00000020418E000000000402018070000003F
:10450000404080F0804040000202010F01020200A2
:10451000000000F0000000000101011F0101010086
:10452000000000000000000080B0700000000000EB
:104530000000000000000000000101010101010174
:10454000000000000000000000303000000000000B
:1045500000000000806018040060180601000000E0
:1045600000E010080810E000000F102020100F00DD
:10457000001010F8000000000020203F2020000064
:1045800000700808088870000030282422213000BC
:1045900000300888884830000018202020110E00C4
:1045A0000000C02010F8000000070424243F24006D
:1045B00000F80888880808000019212020110E0042
:1045C00000E0108888180000000F112020110E0054
:1045D00000380808C83808000000003F000000004C
:1045E0000070880808887000001C222121221C000D
:1045F00000E010080810E0000000312222110F0036
:10460000000000C0C00000000000003030000000CA
:10461000000000800000000000008060000000003A
:104620000000804020100800000102040810200053
:10463000404040404040400004040404040404009E
:104640000008102040800000002010080402010033
:10465000007048080808F000000000303601000033
:10466000C030C828E810E0000718272423140B00E6
:104670000000C038E0000000203C23020227382060
:1046800008F8888888700000203F202020110E0044
:10469000C03008080808380007182020201008003B
:1046A00008F808080810E000203F202020100F0024
:1046B00008F88888E8081000203F202023201800F0
:1046C00008F88888E8081000203F20000300000058
:1046D000C03008080838000007182020221E0200F9
:1046E00008F808000008F808203F210101213F20B8
:1046F000000808F8080800000020203F20200000E3
:1047000000000808F8080800C08080807F000000D2
:1047100008F888C028180800203F2001263820000B
:1047200008F8080000000000203F20202020300072
:1047300008F8F800F8F80800203F003F003F20008C
:1047400008F830C00008F808203F200007183F0094
:10475000E01008080810E0000F10202020100F00C3
:1047600008F808080808F000203F210101010000B6
:10477000E01008080810E0000F18242438504F00FB
:1047800008F8888888887000203F2000030C3020BB
:1047900000708808080838000038202121221C00F9
:1047A000180808F8080818000000203F2000000042
:1047B00008F808000008F808001F202020201F002B
:1047C0000878880000C83808000007380E0100008B
:1047D000F80800F80008F800033C0700073C030055
:1047E000081868808068180820302C03032C3020BB
:1047F0000838C800C83808000000203F200000002A
:1048000010080808C8380800203826212020180081
:10481000000000FE020202000000007F4040400055
:10482000000C30C000000000000000010638C0008D
:1048300000020202FE000000004040407F00000035
:10484000000004020202040000000000000000005A
:104850000000000000000000808080808080808058
:104860000002020400000000000000000000000040
:1048700000008080808000000019242222223F2036
:1048800008F8008080000000003F112020110E0079
:104890000000008080800000000E11202020110008
:1048A000000000808088F800000E112020103F20BA
:1048B0000000808080800000001F2222222213003E
:1048C000008080F0888888180020203F2020000089
:1048D0000000808080808000006B9494949360003E
:1048E00008F8008080800000203F210000203F2049
:1048F00000809898000000000020203F2020000049
:10490000000000809898000000C08080807F000038
:1049100008F8000080808000203F24022D30200015
:10492000000808F8000000000020203F20200000C0
:104930008080808080808000203F20003F20003FDA
:104940008080008080800000203F210000203F20E8
:104950000000808080800000001F202020201F0099
:10496000808000808000000080FFA12020110E00C8
:104970000000008080808000000E112020A0FF80B9
:10498000808080008080800020203F212000010066
:1049900000008080808080000033242424241900BB
:1049A000008080E0808000000000001F20200000C8
:1049B0008080000000808000001F202020103F2009
:1049C000808080000080808000010E300806010099
:1049D00080800080008080800F300C030C300F003E
:1049E00000808000808080000020312E0E31200069
:1049F000808080000080808080818E701806010099
:104A000000808080808080000021302C22213000B6
:104A100000000000807C020200000000003F4040D7
:104A200000000000FF00000000000000FF00000088
:104A30000002027C800000000040403F00000000B7
:104A40000006010102020404000000000000000052
:104A5000704A0008000000209C000000A4400008EC
:104A60000C4B00089C0000207C070000B4400008AC
:104A70000000000000000001010000000000000034
:104A800010000000010000000024F40000000000FD
:104A90000000000000000100020701000207010001
:104AA00002070100020702000206020002060602D7
:104AB00009040302000000000000000000000000E4
:104AC00000000000000008080806000000000000C8
:104AD00000000000000000000000000000000000D6
:104AE00001000000010100000001000000010100C0
:104AF00000000100000001010000000101000001B0
:0C4B0000000000000000000000000000A9
:040000050800018965
:00000001FF
